{
  "_format": "hh-sol-artifact-1",
  "contractName": "RatingSystem",
  "sourceName": "contracts/RatingSystem.sol",
  "abi": [
    {
      "anonymous": false,
      "inputs": [
        {
          "indexed": true,
          "internalType": "address",
          "name": "startup",
          "type": "address"
        },
        {
          "indexed": true,
          "internalType": "address",
          "name": "rater",
          "type": "address"
        },
        {
          "indexed": false,
          "internalType": "uint8",
          "name": "rating",
          "type": "uint8"
        }
      ],
      "name": "StartupRated",
      "type": "event"
    },
    {
      "inputs": [
        {
          "internalType": "address",
          "name": "startup",
          "type": "address"
        }
      ],
      "name": "getAverageRating",
      "outputs": [
        {
          "internalType": "uint256",
          "name": "",
          "type": "uint256"
        }
      ],
      "stateMutability": "view",
      "type": "function"
    },
    {
      "inputs": [
        {
          "internalType": "address",
          "name": "startup",
          "type": "address"
        },
        {
          "internalType": "uint8",
          "name": "rating",
          "type": "uint8"
        }
      ],
      "name": "rateStartup",
      "outputs": [],
      "stateMutability": "nonpayable",
      "type": "function"
    },
    {
      "inputs": [
        {
          "internalType": "address",
          "name": "",
          "type": "address"
        }
      ],
      "name": "startupRatings",
      "outputs": [
        {
          "internalType": "uint256",
          "name": "totalRating",
          "type": "uint256"
        },
        {
          "internalType": "uint256",
          "name": "ratingCount",
          "type": "uint256"
        },
        {
          "internalType": "string",
          "name": "commentIPFSHash",
          "type": "string"
        }
      ],
      "stateMutability": "view",
      "type": "function"
    }
  ],
  "bytecode": "0x6080604052348015600f57600080fd5b506107fe8061001f6000396000f3fe608060405234801561001057600080fd5b50600436106100415760003560e01c806392898ae6146100465780639ad1be9314610062578063c8b6752214610094575b600080fd5b610060600480360381019061005b9190610434565b6100c4565b005b61007c60048036038101906100779190610474565b610270565b60405161008b9392919061054a565b60405180910390f35b6100ae60048036038101906100a99190610474565b610322565b6040516100bb9190610588565b60405180910390f35b60018160ff16101580156100dc575060058160ff1611155b61011b576040517f08c379a0000000000000000000000000000000000000000000000000000000008152600401610112906105ef565b60405180910390fd5b600073ffffffffffffffffffffffffffffffffffffffff168273ffffffffffffffffffffffffffffffffffffffff160361018a576040517f08c379a00000000000000000000000000000000000000000000000000000000081526004016101819061065b565b60405180910390fd5b60008060008473ffffffffffffffffffffffffffffffffffffffff1673ffffffffffffffffffffffffffffffffffffffff16815260200190815260200160002090508160ff168160000160008282546101e391906106aa565b9250508190555060018160010160008282546101ff91906106aa565b925050819055503373ffffffffffffffffffffffffffffffffffffffff168373ffffffffffffffffffffffffffffffffffffffff167f62f174f20c2e110ace93030610badfbb89ea5e7f2a9d088beb27d418245f1ad28460405161026391906106ed565b60405180910390a3505050565b600060205280600052604060002060009150905080600001549080600101549080600201805461029f90610737565b80601f01602080910402602001604051908101604052809291908181526020018280546102cb90610737565b80156103185780601f106102ed57610100808354040283529160200191610318565b820191906000526020600020905b8154815290600101906020018083116102fb57829003601f168201915b5050505050905083565b6000806000808473ffffffffffffffffffffffffffffffffffffffff1673ffffffffffffffffffffffffffffffffffffffff1681526020019081526020016000209050600081600101540361037b576000915050610393565b8060010154816000015461038f9190610797565b9150505b919050565b600080fd5b600073ffffffffffffffffffffffffffffffffffffffff82169050919050565b60006103c88261039d565b9050919050565b6103d8816103bd565b81146103e357600080fd5b50565b6000813590506103f5816103cf565b92915050565b600060ff82169050919050565b610411816103fb565b811461041c57600080fd5b50565b60008135905061042e81610408565b92915050565b6000806040838503121561044b5761044a610398565b5b6000610459858286016103e6565b925050602061046a8582860161041f565b9150509250929050565b60006020828403121561048a57610489610398565b5b6000610498848285016103e6565b91505092915050565b6000819050919050565b6104b4816104a1565b82525050565b600081519050919050565b600082825260208201905092915050565b60005b838110156104f45780820151818401526020810190506104d9565b60008484015250505050565b6000601f19601f8301169050919050565b600061051c826104ba565b61052681856104c5565b93506105368185602086016104d6565b61053f81610500565b840191505092915050565b600060608201905061055f60008301866104ab565b61056c60208301856104ab565b818103604083015261057e8184610511565b9050949350505050565b600060208201905061059d60008301846104ab565b92915050565b7f526174696e67206d75737420626520312d350000000000000000000000000000600082015250565b60006105d96012836104c5565b91506105e4826105a3565b602082019050919050565b60006020820190508181036000830152610608816105cc565b9050919050565b7f496e76616c696420737461727475702061646472657373000000000000000000600082015250565b60006106456017836104c5565b91506106508261060f565b602082019050919050565b6000602082019050818103600083015261067481610638565b9050919050565b7f4e487b7100000000000000000000000000000000000000000000000000000000600052601160045260246000fd5b60006106b5826104a1565b91506106c0836104a1565b92508282019050808211156106d8576106d761067b565b5b92915050565b6106e7816103fb565b82525050565b600060208201905061070260008301846106de565b92915050565b7f4e487b7100000000000000000000000000000000000000000000000000000000600052602260045260246000fd5b6000600282049050600182168061074f57607f821691505b60208210810361076257610761610708565b5b50919050565b7f4e487b7100000000000000000000000000000000000000000000000000000000600052601260045260246000fd5b60006107a2826104a1565b91506107ad836104a1565b9250826107bd576107bc610768565b5b82820490509291505056fea264697066735822122041dc0184197afeccc54b03fc19be32dcf8eb541535834abe1291ef24c93ebb1464736f6c634300081c0033",
  "linkReferences": {},
  "deployedLinkReferences": {}
}