{
  "_format": "hh-sol-artifact-1",
  "contractName": "BackerRegister",
  "sourceName": "contracts/BackerRegister.sol",
  "abi": [
    {
      "inputs": [],
      "stateMutability": "nonpayable",
      "type": "constructor"
    },
    {
      "inputs": [
        {
          "internalType": "address",
          "name": "owner",
          "type": "address"
        }
      ],
      "name": "OwnableInvalidOwner",
      "type": "error"
    },
    {
      "inputs": [
        {
          "internalType": "address",
          "name": "account",
          "type": "address"
        }
      ],
      "name": "OwnableUnauthorizedAccount",
      "type": "error"
    },
    {
      "anonymous": false,
      "inputs": [
        {
          "indexed": true,
          "internalType": "address",
          "name": "backer",
          "type": "address"
        },
        {
          "indexed": false,
          "internalType": "bytes32",
          "name": "emailHash",
          "type": "bytes32"
        }
      ],
      "name": "BackerRegistered",
      "type": "event"
    },
    {
      "anonymous": false,
      "inputs": [
        {
          "indexed": true,
          "internalType": "address",
          "name": "previousOwner",
          "type": "address"
        },
        {
          "indexed": true,
          "internalType": "address",
          "name": "newOwner",
          "type": "address"
        }
      ],
      "name": "OwnershipTransferred",
      "type": "event"
    },
    {
      "inputs": [
        {
          "internalType": "address",
          "name": "",
          "type": "address"
        }
      ],
      "name": "backers",
      "outputs": [
        {
          "internalType": "address",
          "name": "walletAddress",
          "type": "address"
        },
        {
          "internalType": "bytes32",
          "name": "emailHash",
          "type": "bytes32"
        },
        {
          "internalType": "bool",
          "name": "isRegistered",
          "type": "bool"
        }
      ],
      "stateMutability": "view",
      "type": "function"
    },
    {
      "inputs": [
        {
          "internalType": "address",
          "name": "walletAddress",
          "type": "address"
        }
      ],
      "name": "getInvestorEmailHash",
      "outputs": [
        {
          "internalType": "bytes32",
          "name": "",
          "type": "bytes32"
        }
      ],
      "stateMutability": "view",
      "type": "function"
    },
    {
      "inputs": [
        {
          "internalType": "address",
          "name": "walletAddress",
          "type": "address"
        }
      ],
      "name": "isBackerRegistered",
      "outputs": [
        {
          "internalType": "bool",
          "name": "",
          "type": "bool"
        }
      ],
      "stateMutability": "view",
      "type": "function"
    },
    {
      "inputs": [],
      "name": "owner",
      "outputs": [
        {
          "internalType": "address",
          "name": "",
          "type": "address"
        }
      ],
      "stateMutability": "view",
      "type": "function"
    },
    {
      "inputs": [
        {
          "internalType": "string",
          "name": "email",
          "type": "string"
        }
      ],
      "name": "registerInvestor",
      "outputs": [],
      "stateMutability": "nonpayable",
      "type": "function"
    },
    {
      "inputs": [],
      "name": "renounceOwnership",
      "outputs": [],
      "stateMutability": "nonpayable",
      "type": "function"
    },
    {
      "inputs": [
        {
          "internalType": "address",
          "name": "newOwner",
          "type": "address"
        }
      ],
      "name": "transferOwnership",
      "outputs": [],
      "stateMutability": "nonpayable",
      "type": "function"
    }
  ],
  "bytecode": "0x608060405234801561001057600080fd5b5033600073ffffffffffffffffffffffffffffffffffffffff168173ffffffffffffffffffffffffffffffffffffffff16036100845760006040517f1e4fbdf700000000000000000000000000000000000000000000000000000000815260040161007b919061019e565b60405180910390fd5b6100938161009960201b60201c565b506101b9565b60008060009054906101000a900473ffffffffffffffffffffffffffffffffffffffff169050816000806101000a81548173ffffffffffffffffffffffffffffffffffffffff021916908373ffffffffffffffffffffffffffffffffffffffff1602179055508173ffffffffffffffffffffffffffffffffffffffff168173ffffffffffffffffffffffffffffffffffffffff167f8be0079c531659141344cd1fd0a4f28419497f9722a3daafe3b4186f6b6457e060405160405180910390a35050565b600073ffffffffffffffffffffffffffffffffffffffff82169050919050565b60006101888261015d565b9050919050565b6101988161017d565b82525050565b60006020820190506101b3600083018461018f565b92915050565b610ba9806101c86000396000f3fe608060405234801561001057600080fd5b506004361061007d5760003560e01c8063b85dfb801161005b578063b85dfb80146100da578063ec3246a21461010c578063f2fde38b14610128578063f3eb214d146101445761007d565b8063715018a6146100825780638da5cb5b1461008c578063a099d79a146100aa575b600080fd5b61008a610174565b005b610094610188565b6040516100a1919061074a565b60405180910390f35b6100c460048036038101906100bf91906107a5565b6101b1565b6040516100d191906107ed565b60405180910390f35b6100f460048036038101906100ef91906107a5565b61020a565b60405161010393929190610821565b60405180910390f35b6101266004803603810190610121919061099e565b610261565b005b610142600480360381019061013d91906107a5565b610455565b005b61015e600480360381019061015991906107a5565b6104db565b60405161016b91906109e7565b60405180910390f35b61017c6105b6565b610186600061063d565b565b60008060009054906101000a900473ffffffffffffffffffffffffffffffffffffffff16905090565b6000600160008373ffffffffffffffffffffffffffffffffffffffff1673ffffffffffffffffffffffffffffffffffffffff16815260200190815260200160002060020160009054906101000a900460ff169050919050565b60016020528060005260406000206000915090508060000160009054906101000a900473ffffffffffffffffffffffffffffffffffffffff16908060010154908060020160009054906101000a900460ff16905083565b600160003373ffffffffffffffffffffffffffffffffffffffff1673ffffffffffffffffffffffffffffffffffffffff16815260200190815260200160002060020160009054906101000a900460ff16156102f1576040517f08c379a00000000000000000000000000000000000000000000000000000000081526004016102e890610a5f565b60405180910390fd5b6000816040516020016103049190610af0565b60405160208183030381529060405280519060200120905060405180606001604052803373ffffffffffffffffffffffffffffffffffffffff16815260200182815260200160011515815250600160003373ffffffffffffffffffffffffffffffffffffffff1673ffffffffffffffffffffffffffffffffffffffff16815260200190815260200160002060008201518160000160006101000a81548173ffffffffffffffffffffffffffffffffffffffff021916908373ffffffffffffffffffffffffffffffffffffffff1602179055506020820151816001015560408201518160020160006101000a81548160ff0219169083151502179055509050503373ffffffffffffffffffffffffffffffffffffffff167fad502f96689e8d84ea28e0216e0ec3cbd76c97f7bf4def6dd0b9e1df8c860e968260405161044991906109e7565b60405180910390a25050565b61045d6105b6565b600073ffffffffffffffffffffffffffffffffffffffff168173ffffffffffffffffffffffffffffffffffffffff16036104cf5760006040517f1e4fbdf70000000000000000000000000000000000000000000000000000000081526004016104c6919061074a565b60405180910390fd5b6104d88161063d565b50565b6000600160008373ffffffffffffffffffffffffffffffffffffffff1673ffffffffffffffffffffffffffffffffffffffff16815260200190815260200160002060020160009054906101000a900460ff1661056c576040517f08c379a000000000000000000000000000000000000000000000000000000000815260040161056390610b53565b60405180910390fd5b600160008373ffffffffffffffffffffffffffffffffffffffff1673ffffffffffffffffffffffffffffffffffffffff168152602001908152602001600020600101549050919050565b6105be610701565b73ffffffffffffffffffffffffffffffffffffffff166105dc610188565b73ffffffffffffffffffffffffffffffffffffffff161461063b576105ff610701565b6040517f118cdaa7000000000000000000000000000000000000000000000000000000008152600401610632919061074a565b60405180910390fd5b565b60008060009054906101000a900473ffffffffffffffffffffffffffffffffffffffff169050816000806101000a81548173ffffffffffffffffffffffffffffffffffffffff021916908373ffffffffffffffffffffffffffffffffffffffff1602179055508173ffffffffffffffffffffffffffffffffffffffff168173ffffffffffffffffffffffffffffffffffffffff167f8be0079c531659141344cd1fd0a4f28419497f9722a3daafe3b4186f6b6457e060405160405180910390a35050565b600033905090565b600073ffffffffffffffffffffffffffffffffffffffff82169050919050565b600061073482610709565b9050919050565b61074481610729565b82525050565b600060208201905061075f600083018461073b565b92915050565b6000604051905090565b600080fd5b600080fd5b61078281610729565b811461078d57600080fd5b50565b60008135905061079f81610779565b92915050565b6000602082840312156107bb576107ba61076f565b5b60006107c984828501610790565b91505092915050565b60008115159050919050565b6107e7816107d2565b82525050565b600060208201905061080260008301846107de565b92915050565b6000819050919050565b61081b81610808565b82525050565b6000606082019050610836600083018661073b565b6108436020830185610812565b61085060408301846107de565b949350505050565b600080fd5b600080fd5b6000601f19601f8301169050919050565b7f4e487b7100000000000000000000000000000000000000000000000000000000600052604160045260246000fd5b6108ab82610862565b810181811067ffffffffffffffff821117156108ca576108c9610873565b5b80604052505050565b60006108dd610765565b90506108e982826108a2565b919050565b600067ffffffffffffffff82111561090957610908610873565b5b61091282610862565b9050602081019050919050565b82818337600083830152505050565b600061094161093c846108ee565b6108d3565b90508281526020810184848401111561095d5761095c61085d565b5b61096884828561091f565b509392505050565b600082601f83011261098557610984610858565b5b813561099584826020860161092e565b91505092915050565b6000602082840312156109b4576109b361076f565b5b600082013567ffffffffffffffff8111156109d2576109d1610774565b5b6109de84828501610970565b91505092915050565b60006020820190506109fc6000830184610812565b92915050565b600082825260208201905092915050565b7f496e766573746f7220616c726561647920726567697374657265640000000000600082015250565b6000610a49601b83610a02565b9150610a5482610a13565b602082019050919050565b60006020820190508181036000830152610a7881610a3c565b9050919050565b600081519050919050565b600081905092915050565b60005b83811015610ab3578082015181840152602081019050610a98565b60008484015250505050565b6000610aca82610a7f565b610ad48185610a8a565b9350610ae4818560208601610a95565b80840191505092915050565b6000610afc8284610abf565b915081905092915050565b7f496e766573746f72206e6f742072656769737465726564000000000000000000600082015250565b6000610b3d601783610a02565b9150610b4882610b07565b602082019050919050565b60006020820190508181036000830152610b6c81610b30565b905091905056fea2646970667358221220a631a06c6a2f35946009de494b924325481cc7aa79c9b794cbf8d9965b8636d464736f6c634300081c0033",
  "linkReferences": {},
  "deployedLinkReferences": {}
}