{
  "_format": "hh-sol-artifact-1",
  "contractName": "BackerRegister",
  "sourceName": "contracts/BackerRegister.sol",
  "abi": [
    {
      "anonymous": false,
      "inputs": [
        {
          "indexed": true,
          "internalType": "address",
          "name": "backer",
          "type": "address"
        },
        {
          "indexed": false,
          "internalType": "bytes32",
          "name": "emailHash",
          "type": "bytes32"
        }
      ],
      "name": "BackerRegistered",
      "type": "event"
    },
    {
      "inputs": [
        {
          "internalType": "address",
          "name": "",
          "type": "address"
        }
      ],
      "name": "backers",
      "outputs": [
        {
          "internalType": "address",
          "name": "walletAddress",
          "type": "address"
        },
        {
          "internalType": "bytes32",
          "name": "emailHash",
          "type": "bytes32"
        },
        {
          "internalType": "bool",
          "name": "isRegistered",
          "type": "bool"
        }
      ],
      "stateMutability": "view",
      "type": "function"
    },
    {
      "inputs": [
        {
          "internalType": "address",
          "name": "walletAddress",
          "type": "address"
        }
      ],
      "name": "getInvestorEmailHash",
      "outputs": [
        {
          "internalType": "bytes32",
          "name": "",
          "type": "bytes32"
        }
      ],
      "stateMutability": "view",
      "type": "function"
    },
    {
      "inputs": [
        {
          "internalType": "address",
          "name": "walletAddress",
          "type": "address"
        }
      ],
      "name": "isBackerRegistered",
      "outputs": [
        {
          "internalType": "bool",
          "name": "",
          "type": "bool"
        }
      ],
      "stateMutability": "view",
      "type": "function"
    },
    {
      "inputs": [
        {
          "internalType": "string",
          "name": "email",
          "type": "string"
        }
      ],
      "name": "registerInvestor",
      "outputs": [],
      "stateMutability": "nonpayable",
      "type": "function"
    }
  ],
  "bytecode": "0x6080604052348015600f57600080fd5b506108fe8061001f6000396000f3fe608060405234801561001057600080fd5b506004361061004c5760003560e01c8063a099d79a14610051578063b85dfb8014610081578063ec3246a2146100b3578063f3eb214d146100cf575b600080fd5b61006b600480360381019061006691906104eb565b6100ff565b6040516100789190610533565b60405180910390f35b61009b600480360381019061009691906104eb565b610157565b6040516100aa93929190610576565b60405180910390f35b6100cd60048036038101906100c891906106f3565b6101ae565b005b6100e960048036038101906100e491906104eb565b6103a0565b6040516100f6919061073c565b60405180910390f35b60008060008373ffffffffffffffffffffffffffffffffffffffff1673ffffffffffffffffffffffffffffffffffffffff16815260200190815260200160002060020160009054906101000a900460ff169050919050565b60006020528060005260406000206000915090508060000160009054906101000a900473ffffffffffffffffffffffffffffffffffffffff16908060010154908060020160009054906101000a900460ff16905083565b6000803373ffffffffffffffffffffffffffffffffffffffff1673ffffffffffffffffffffffffffffffffffffffff16815260200190815260200160002060020160009054906101000a900460ff161561023d576040517f08c379a0000000000000000000000000000000000000000000000000000000008152600401610234906107b4565b60405180910390fd5b6000816040516020016102509190610845565b60405160208183030381529060405280519060200120905060405180606001604052803373ffffffffffffffffffffffffffffffffffffffff168152602001828152602001600115158152506000803373ffffffffffffffffffffffffffffffffffffffff1673ffffffffffffffffffffffffffffffffffffffff16815260200190815260200160002060008201518160000160006101000a81548173ffffffffffffffffffffffffffffffffffffffff021916908373ffffffffffffffffffffffffffffffffffffffff1602179055506020820151816001015560408201518160020160006101000a81548160ff0219169083151502179055509050503373ffffffffffffffffffffffffffffffffffffffff167fad502f96689e8d84ea28e0216e0ec3cbd76c97f7bf4def6dd0b9e1df8c860e9682604051610394919061073c565b60405180910390a25050565b60008060008373ffffffffffffffffffffffffffffffffffffffff1673ffffffffffffffffffffffffffffffffffffffff16815260200190815260200160002060020160009054906101000a900460ff16610430576040517f08c379a0000000000000000000000000000000000000000000000000000000008152600401610427906108a8565b60405180910390fd5b6000808373ffffffffffffffffffffffffffffffffffffffff1673ffffffffffffffffffffffffffffffffffffffff168152602001908152602001600020600101549050919050565b6000604051905090565b600080fd5b600080fd5b600073ffffffffffffffffffffffffffffffffffffffff82169050919050565b60006104b88261048d565b9050919050565b6104c8816104ad565b81146104d357600080fd5b50565b6000813590506104e5816104bf565b92915050565b60006020828403121561050157610500610483565b5b600061050f848285016104d6565b91505092915050565b60008115159050919050565b61052d81610518565b82525050565b60006020820190506105486000830184610524565b92915050565b610557816104ad565b82525050565b6000819050919050565b6105708161055d565b82525050565b600060608201905061058b600083018661054e565b6105986020830185610567565b6105a56040830184610524565b949350505050565b600080fd5b600080fd5b6000601f19601f8301169050919050565b7f4e487b7100000000000000000000000000000000000000000000000000000000600052604160045260246000fd5b610600826105b7565b810181811067ffffffffffffffff8211171561061f5761061e6105c8565b5b80604052505050565b6000610632610479565b905061063e82826105f7565b919050565b600067ffffffffffffffff82111561065e5761065d6105c8565b5b610667826105b7565b9050602081019050919050565b82818337600083830152505050565b600061069661069184610643565b610628565b9050828152602081018484840111156106b2576106b16105b2565b5b6106bd848285610674565b509392505050565b600082601f8301126106da576106d96105ad565b5b81356106ea848260208601610683565b91505092915050565b60006020828403121561070957610708610483565b5b600082013567ffffffffffffffff81111561072757610726610488565b5b610733848285016106c5565b91505092915050565b60006020820190506107516000830184610567565b92915050565b600082825260208201905092915050565b7f496e766573746f7220616c726561647920726567697374657265640000000000600082015250565b600061079e601b83610757565b91506107a982610768565b602082019050919050565b600060208201905081810360008301526107cd81610791565b9050919050565b600081519050919050565b600081905092915050565b60005b838110156108085780820151818401526020810190506107ed565b60008484015250505050565b600061081f826107d4565b61082981856107df565b93506108398185602086016107ea565b80840191505092915050565b60006108518284610814565b915081905092915050565b7f496e766573746f72206e6f742072656769737465726564000000000000000000600082015250565b6000610892601783610757565b915061089d8261085c565b602082019050919050565b600060208201905081810360008301526108c181610885565b905091905056fea26469706673582212203a53850246b4a8f9a9abb39398f2f73ecf127288cabb100b5ee783d15f33f75664736f6c634300081c0033",
  "linkReferences": {},
  "deployedLinkReferences": {}
}