{
  "_format": "hh-sol-artifact-1",
  "contractName": "CrowdfundingPlatform",
  "sourceName": "contracts/CrowdfundingPlatform.sol",
  "abi": [
    {
      "inputs": [],
      "stateMutability": "nonpayable",
      "type": "constructor"
    },
    {
      "anonymous": false,
      "inputs": [
        {
          "indexed": true,
          "internalType": "uint256",
          "name": "projectId",
          "type": "uint256"
        },
        {
          "indexed": true,
          "internalType": "address",
          "name": "backer",
          "type": "address"
        },
        {
          "indexed": false,
          "internalType": "bool",
          "name": "report",
          "type": "bool"
        }
      ],
      "name": "DividendReportMade",
      "type": "event"
    },
    {
      "anonymous": false,
      "inputs": [
        {
          "indexed": true,
          "internalType": "uint256",
          "name": "projectId",
          "type": "uint256"
        },
        {
          "indexed": true,
          "internalType": "address",
          "name": "founder",
          "type": "address"
        },
        {
          "indexed": false,
          "internalType": "uint256",
          "name": "amount",
          "type": "uint256"
        },
        {
          "indexed": false,
          "internalType": "uint256",
          "name": "fee",
          "type": "uint256"
        }
      ],
      "name": "FundsReleased",
      "type": "event"
    },
    {
      "anonymous": false,
      "inputs": [
        {
          "indexed": true,
          "internalType": "uint256",
          "name": "projectId",
          "type": "uint256"
        },
        {
          "indexed": true,
          "internalType": "address",
          "name": "backer",
          "type": "address"
        },
        {
          "indexed": false,
          "internalType": "uint256",
          "name": "amount",
          "type": "uint256"
        }
      ],
      "name": "InvestmentMade",
      "type": "event"
    },
    {
      "anonymous": false,
      "inputs": [
        {
          "indexed": true,
          "internalType": "address",
          "name": "oldOwner",
          "type": "address"
        },
        {
          "indexed": true,
          "internalType": "address",
          "name": "newOwner",
          "type": "address"
        }
      ],
      "name": "PlatformOwnerUpdated",
      "type": "event"
    },
    {
      "anonymous": false,
      "inputs": [
        {
          "indexed": true,
          "internalType": "uint256",
          "name": "projectId",
          "type": "uint256"
        },
        {
          "indexed": true,
          "internalType": "address",
          "name": "founder",
          "type": "address"
        },
        {
          "indexed": false,
          "internalType": "uint256",
          "name": "goal",
          "type": "uint256"
        },
        {
          "indexed": false,
          "internalType": "uint256",
          "name": "deadline",
          "type": "uint256"
        }
      ],
      "name": "ProjectCreated",
      "type": "event"
    },
    {
      "anonymous": false,
      "inputs": [
        {
          "indexed": true,
          "internalType": "uint256",
          "name": "projectId",
          "type": "uint256"
        },
        {
          "indexed": false,
          "internalType": "enum CrowdfundingPlatform.ProjectStatus",
          "name": "status",
          "type": "uint8"
        }
      ],
      "name": "ProjectStatusUpdated",
      "type": "event"
    },
    {
      "anonymous": false,
      "inputs": [
        {
          "indexed": true,
          "internalType": "uint256",
          "name": "projectId",
          "type": "uint256"
        },
        {
          "indexed": true,
          "internalType": "address",
          "name": "backer",
          "type": "address"
        },
        {
          "indexed": false,
          "internalType": "uint256",
          "name": "amount",
          "type": "uint256"
        }
      ],
      "name": "RefundIssued",
      "type": "event"
    },
    {
      "inputs": [],
      "name": "FINAL_RELEASE_THREHOLD",
      "outputs": [
        {
          "internalType": "uint8",
          "name": "",
          "type": "uint8"
        }
      ],
      "stateMutability": "view",
      "type": "function"
    },
    {
      "inputs": [],
      "name": "FIRST_RELEASE_AMT",
      "outputs": [
        {
          "internalType": "uint8",
          "name": "",
          "type": "uint8"
        }
      ],
      "stateMutability": "view",
      "type": "function"
    },
    {
      "inputs": [],
      "name": "PLATFORM_FEE_PERCENT",
      "outputs": [
        {
          "internalType": "uint256",
          "name": "",
          "type": "uint256"
        }
      ],
      "stateMutability": "view",
      "type": "function"
    },
    {
      "inputs": [
        {
          "internalType": "uint256",
          "name": "_goal",
          "type": "uint256"
        },
        {
          "internalType": "uint256",
          "name": "_deadline",
          "type": "uint256"
        }
      ],
      "name": "createProject",
      "outputs": [],
      "stateMutability": "nonpayable",
      "type": "function"
    },
    {
      "inputs": [
        {
          "internalType": "uint256",
          "name": "_projectId",
          "type": "uint256"
        }
      ],
      "name": "finalRelease",
      "outputs": [],
      "stateMutability": "nonpayable",
      "type": "function"
    },
    {
      "inputs": [
        {
          "internalType": "uint256",
          "name": "_projectId",
          "type": "uint256"
        }
      ],
      "name": "firstRelease",
      "outputs": [],
      "stateMutability": "nonpayable",
      "type": "function"
    },
    {
      "inputs": [
        {
          "internalType": "uint256",
          "name": "_projectId",
          "type": "uint256"
        },
        {
          "internalType": "address",
          "name": "_investor",
          "type": "address"
        }
      ],
      "name": "getInvestments",
      "outputs": [
        {
          "internalType": "uint256",
          "name": "",
          "type": "uint256"
        }
      ],
      "stateMutability": "view",
      "type": "function"
    },
    {
      "inputs": [
        {
          "internalType": "uint256",
          "name": "projectId",
          "type": "uint256"
        },
        {
          "internalType": "address",
          "name": "investor",
          "type": "address"
        }
      ],
      "name": "getReported",
      "outputs": [
        {
          "internalType": "bool",
          "name": "",
          "type": "bool"
        }
      ],
      "stateMutability": "view",
      "type": "function"
    },
    {
      "inputs": [
        {
          "internalType": "uint256",
          "name": "_projectId",
          "type": "uint256"
        },
        {
          "internalType": "uint256",
          "name": "_amount",
          "type": "uint256"
        }
      ],
      "name": "invest",
      "outputs": [],
      "stateMutability": "payable",
      "type": "function"
    },
    {
      "inputs": [],
      "name": "platformOwner",
      "outputs": [
        {
          "internalType": "address",
          "name": "",
          "type": "address"
        }
      ],
      "stateMutability": "view",
      "type": "function"
    },
    {
      "inputs": [],
      "name": "projectCount",
      "outputs": [
        {
          "internalType": "uint256",
          "name": "",
          "type": "uint256"
        }
      ],
      "stateMutability": "view",
      "type": "function"
    },
    {
      "inputs": [
        {
          "internalType": "uint256",
          "name": "",
          "type": "uint256"
        }
      ],
      "name": "projects",
      "outputs": [
        {
          "internalType": "address",
          "name": "founder",
          "type": "address"
        },
        {
          "internalType": "uint256",
          "name": "goal",
          "type": "uint256"
        },
        {
          "internalType": "uint256",
          "name": "funded",
          "type": "uint256"
        },
        {
          "internalType": "uint256",
          "name": "frozen",
          "type": "uint256"
        },
        {
          "internalType": "uint256",
          "name": "totalInvestors",
          "type": "uint256"
        },
        {
          "internalType": "enum CrowdfundingPlatform.ProjectStatus",
          "name": "status",
          "type": "uint8"
        },
        {
          "internalType": "uint256",
          "name": "deadline",
          "type": "uint256"
        },
        {
          "internalType": "string",
          "name": "descIPFSHash",
          "type": "string"
        },
        {
          "internalType": "uint256",
          "name": "dividendConfirmed",
          "type": "uint256"
        }
      ],
      "stateMutability": "view",
      "type": "function"
    },
    {
      "inputs": [
        {
          "internalType": "uint256",
          "name": "_projectId",
          "type": "uint256"
        }
      ],
      "name": "refund",
      "outputs": [],
      "stateMutability": "nonpayable",
      "type": "function"
    },
    {
      "inputs": [
        {
          "internalType": "uint256",
          "name": "_projectId",
          "type": "uint256"
        },
        {
          "internalType": "bool",
          "name": "_received",
          "type": "bool"
        }
      ],
      "name": "reportDividend",
      "outputs": [],
      "stateMutability": "nonpayable",
      "type": "function"
    },
    {
      "inputs": [
        {
          "internalType": "uint256",
          "name": "_projectId",
          "type": "uint256"
        }
      ],
      "name": "setProjectApproved",
      "outputs": [],
      "stateMutability": "nonpayable",
      "type": "function"
    },
    {
      "inputs": [
        {
          "internalType": "uint256",
          "name": "_projectId",
          "type": "uint256"
        }
      ],
      "name": "setProjectFailed",
      "outputs": [],
      "stateMutability": "nonpayable",
      "type": "function"
    },
    {
      "inputs": [
        {
          "internalType": "address",
          "name": "newOwner",
          "type": "address"
        }
      ],
      "name": "updatePlatformOwner",
      "outputs": [],
      "stateMutability": "nonpayable",
      "type": "function"
    }
  ],
  "bytecode": "0x6080604052348015600f57600080fd5b50336000806101000a81548173ffffffffffffffffffffffffffffffffffffffff021916908373ffffffffffffffffffffffffffffffffffffffff1602179055506128358061005f6000396000f3fe6080604052600436106100fe5760003560e01c80634f3a2072116100955780636a97d5d8116100645780636a97d5d8146103255780637a614f44146103505780639a2c6ede1461037b578063d87aa643146103b8578063e9a49f04146103d4576100fe565b80634f3a20721461027f5780634f475a9f146102a857806350ceea65146102d1578063560d52d4146102fa576100fe565b8063245a9e5f116100d1578063245a9e5f146101c3578063278ecde11461020057806336fbad26146102295780634df8ccb114610254576100fe565b806302da667b14610103578063107046bd1461012c5780631b34f107146101715780632146fc921461019a575b600080fd5b34801561010f57600080fd5b5061012a60048036038101906101259190611ace565b6103fd565b005b34801561013857600080fd5b50610153600480360381019061014e9190611b0e565b61059b565b60405161016899989796959493929190611c92565b60405180910390f35b34801561017d57600080fd5b5061019860048036038101906101939190611d52565b61069e565b005b3480156101a657600080fd5b506101c160048036038101906101bc9190611b0e565b61085f565b005b3480156101cf57600080fd5b506101ea60048036038101906101e59190611d7f565b610c18565b6040516101f79190611dbf565b60405180910390f35b34801561020c57600080fd5b5061022760048036038101906102229190611b0e565b610c76565b005b34801561023557600080fd5b5061023e610ea6565b60405161024b9190611dbf565b60405180910390f35b34801561026057600080fd5b50610269610eac565b6040516102769190611dda565b60405180910390f35b34801561028b57600080fd5b506102a660048036038101906102a19190611b0e565b610ed0565b005b3480156102b457600080fd5b506102cf60048036038101906102ca9190611b0e565b611007565b005b3480156102dd57600080fd5b506102f860048036038101906102f39190611e2d565b6113bc565b005b34801561030657600080fd5b5061030f611663565b60405161031c9190611dbf565b60405180910390f35b34801561033157600080fd5b5061033a611668565b6040516103479190611e89565b60405180910390f35b34801561035c57600080fd5b5061036561166d565b6040516103729190611e89565b60405180910390f35b34801561038757600080fd5b506103a2600480360381019061039d9190611d7f565b611672565b6040516103af9190611eb3565b60405180910390f35b6103d260048036038101906103cd9190611ace565b6116dd565b005b3480156103e057600080fd5b506103fb60048036038101906103f69190611b0e565b611980565b005b8160008111610441576040517f08c379a000000000000000000000000000000000000000000000000000000000815260040161043890611f1a565b60405180910390fd5b81428111610484576040517f08c379a000000000000000000000000000000000000000000000000000000000815260040161047b90611f86565b60405180910390fd5b6002600081548092919061049790611fd5565b919050555060006001600060025481526020019081526020016000209050338160000160006101000a81548173ffffffffffffffffffffffffffffffffffffffff021916908373ffffffffffffffffffffffffffffffffffffffff1602179055508481600101819055506000816002018190555060008160060160006101000a81548160ff0219169083600481111561053357610532611b8b565b5b02179055508381600701819055503373ffffffffffffffffffffffffffffffffffffffff166002547fb5d890eb2df709d2f732ed81f328b444e49c1618ed8d64c53c0a040ec4040e1e878760405161058c92919061201d565b60405180910390a35050505050565b60016020528060005260406000206000915090508060000160009054906101000a900473ffffffffffffffffffffffffffffffffffffffff16908060010154908060020154908060030154908060040154908060060160009054906101000a900460ff169080600701549080600801805461061590612075565b80601f016020809104026020016040519081016040528092919081815260200182805461064190612075565b801561068e5780601f106106635761010080835404028352916020019161068e565b820191906000526020600020905b81548152906001019060200180831161067157829003601f168201915b5050505050908060090154905089565b60008054906101000a900473ffffffffffffffffffffffffffffffffffffffff1673ffffffffffffffffffffffffffffffffffffffff163373ffffffffffffffffffffffffffffffffffffffff161461072c576040517f08c379a0000000000000000000000000000000000000000000000000000000008152600401610723906120f2565b60405180910390fd5b60008060009054906101000a900473ffffffffffffffffffffffffffffffffffffffff169050600073ffffffffffffffffffffffffffffffffffffffff168273ffffffffffffffffffffffffffffffffffffffff16036107c1576040517f08c379a00000000000000000000000000000000000000000000000000000000081526004016107b89061215e565b60405180910390fd5b816000806101000a81548173ffffffffffffffffffffffffffffffffffffffff021916908373ffffffffffffffffffffffffffffffffffffffff1602179055508173ffffffffffffffffffffffffffffffffffffffff168173ffffffffffffffffffffffffffffffffffffffff167fee4b1905dbf7296deefe7b32dab8d980d5436c1e337348931ac35ee4ad06f9f660405160405180910390a35050565b8060006001600083815260200190815260200160002090506003600481111561088b5761088a611b8b565b5b8160060160009054906101000a900460ff1660048111156108af576108ae611b8b565b5b146108ef576040517f08c379a00000000000000000000000000000000000000000000000000000000081526004016108e6906121f0565b60405180910390fd5b8260006001600083815260200190815260200160002090508060000160009054906101000a900473ffffffffffffffffffffffffffffffffffffffff1673ffffffffffffffffffffffffffffffffffffffff163373ffffffffffffffffffffffffffffffffffffffff1614610999576040517f08c379a00000000000000000000000000000000000000000000000000000000081526004016109909061225c565b60405180910390fd5b8060040154605060ff166109ad919061227c565b606482600901546109be919061227c565b10156109ff576040517f08c379a00000000000000000000000000000000000000000000000000000000081526004016109f690612330565b60405180910390fd5b600060016000878152602001908152602001600020905060008160030154905060006064600183610a30919061227c565b610a3a919061237f565b905060008183610a4a91906123b0565b90506000846003018190555060048460060160006101000a81548160ff02191690836004811115610a7e57610a7d611b8b565b5b0217905550887f8fb6fda973f304b2834c4147004045448416c05b253872373ac5b19f4a5b7a5d6004604051610ab491906123e4565b60405180910390a26000821115610b2d5760008054906101000a900473ffffffffffffffffffffffffffffffffffffffff1673ffffffffffffffffffffffffffffffffffffffff166108fc839081150290604051600060405180830381858888f19350505050158015610b2b573d6000803e3d6000fd5b505b8360000160009054906101000a900473ffffffffffffffffffffffffffffffffffffffff1673ffffffffffffffffffffffffffffffffffffffff166108fc829081150290604051600060405180830381858888f19350505050158015610b97573d6000803e3d6000fd5b508360000160009054906101000a900473ffffffffffffffffffffffffffffffffffffffff1673ffffffffffffffffffffffffffffffffffffffff16897f93e901cc5aea20ea9655887d9290a3215a5b3999c024812f4e4b749f7534349c8385604051610c0592919061201d565b60405180910390a3505050505050505050565b60006001600084815260200190815260200160002060050160008373ffffffffffffffffffffffffffffffffffffffff1673ffffffffffffffffffffffffffffffffffffffff16815260200190815260200160002054905092915050565b600060016000838152602001908152602001600020905060026004811115610ca157610ca0611b8b565b5b8160060160009054906101000a900460ff166004811115610cc557610cc4611b8b565b5b14610d05576040517f08c379a0000000000000000000000000000000000000000000000000000000008152600401610cfc9061244b565b60405180910390fd5b60008160050160003373ffffffffffffffffffffffffffffffffffffffff1673ffffffffffffffffffffffffffffffffffffffff16815260200190815260200160002054905060008111610d8e576040517f08c379a0000000000000000000000000000000000000000000000000000000008152600401610d85906124b7565b60405180910390fd5b60008260050160003373ffffffffffffffffffffffffffffffffffffffff1673ffffffffffffffffffffffffffffffffffffffff1681526020019081526020016000208190555080826002015410610e005780826002016000828254610df491906123b0565b92505081905550610e0b565b600082600201819055505b3373ffffffffffffffffffffffffffffffffffffffff166108fc829081150290604051600060405180830381858888f19350505050158015610e51573d6000803e3d6000fd5b503373ffffffffffffffffffffffffffffffffffffffff16837f7a482fdeb6bc9a1376f597068a214a7a39472bb2eff1b8cad21ba04f49ddca1b83604051610e999190611dbf565b60405180910390a3505050565b60025481565b60008054906101000a900473ffffffffffffffffffffffffffffffffffffffff1681565b80600060016000838152602001908152602001600020905060006004811115610efc57610efb611b8b565b5b8160060160009054906101000a900460ff166004811115610f2057610f1f611b8b565b5b14610f60576040517f08c379a0000000000000000000000000000000000000000000000000000000008152600401610f5790612523565b60405180910390fd5b600060019050600060016000868152602001908152602001600020905081610f89576002610f8c565b60015b8160060160006101000a81548160ff02191690836004811115610fb257610fb1611b8b565b5b0217905550847f8fb6fda973f304b2834c4147004045448416c05b253872373ac5b19f4a5b7a5d8260060160009054906101000a900460ff16604051610ff891906123e4565b60405180910390a25050505050565b8060006001600083815260200190815260200160002090508060000160009054906101000a900473ffffffffffffffffffffffffffffffffffffffff1673ffffffffffffffffffffffffffffffffffffffff163373ffffffffffffffffffffffffffffffffffffffff16146110b1576040517f08c379a00000000000000000000000000000000000000000000000000000000081526004016110a89061225c565b60405180910390fd5b600160048111156110c5576110c4611b8b565b5b8160060160009054906101000a900460ff1660048111156110e9576110e8611b8b565b5b14611129576040517f08c379a00000000000000000000000000000000000000000000000000000000081526004016111209061258f565b60405180910390fd5b806001015481600201541015611174576040517f08c379a000000000000000000000000000000000000000000000000000000000815260040161116b906125fb565b60405180910390fd5b600060016000858152602001908152602001600020905060008160020154905060006064605a60ff16836111a8919061227c565b6111b2919061237f565b9050600081836111c291906123b0565b9050600060646001846111d5919061227c565b6111df919061237f565b9050600081846111ef91906123b0565b905082866003018190555060038660060160006101000a81548160ff0219169083600481111561122257611221611b8b565b5b0217905550887f8fb6fda973f304b2834c4147004045448416c05b253872373ac5b19f4a5b7a5d600360405161125891906123e4565b60405180910390a260008211156112d15760008054906101000a900473ffffffffffffffffffffffffffffffffffffffff1673ffffffffffffffffffffffffffffffffffffffff166108fc839081150290604051600060405180830381858888f193505050501580156112cf573d6000803e3d6000fd5b505b8560000160009054906101000a900473ffffffffffffffffffffffffffffffffffffffff1673ffffffffffffffffffffffffffffffffffffffff166108fc829081150290604051600060405180830381858888f1935050505015801561133b573d6000803e3d6000fd5b508560000160009054906101000a900473ffffffffffffffffffffffffffffffffffffffff1673ffffffffffffffffffffffffffffffffffffffff16897f93e901cc5aea20ea9655887d9290a3215a5b3999c024812f4e4b749f7534349c83856040516113a992919061201d565b60405180910390a3505050505050505050565b816000600160008381526020019081526020016000209050600360048111156113e8576113e7611b8b565b5b8160060160009054906101000a900460ff16600481111561140c5761140b611b8b565b5b1461144c576040517f08c379a0000000000000000000000000000000000000000000000000000000008152600401611443906121f0565b60405180910390fd5b83600060016000838152602001908152602001600020905060008160050160003373ffffffffffffffffffffffffffffffffffffffff1673ffffffffffffffffffffffffffffffffffffffff16815260200190815260200160002054116114e8576040517f08c379a00000000000000000000000000000000000000000000000000000000081526004016114df90612667565b60405180910390fd5b80600a0160003373ffffffffffffffffffffffffffffffffffffffff1673ffffffffffffffffffffffffffffffffffffffff16815260200190815260200160002060009054906101000a900460ff1615611577576040517f08c379a000000000000000000000000000000000000000000000000000000000815260040161156e906126d3565b60405180910390fd5b6000600160008881526020019081526020016000209050600181600a0160003373ffffffffffffffffffffffffffffffffffffffff1673ffffffffffffffffffffffffffffffffffffffff16815260200190815260200160002060006101000a81548160ff021916908315150217905550851561160b57600181600901600082825461160391906126f3565b925050819055505b3373ffffffffffffffffffffffffffffffffffffffff16877f52dd44244bbed9fe58d3d89f0aa513627184a1ae9cb01744cfa8745b7bc40dd3886040516116529190611eb3565b60405180910390a350505050505050565b600181565b605a81565b605081565b600060016000848152602001908152602001600020600a0160008373ffffffffffffffffffffffffffffffffffffffff1673ffffffffffffffffffffffffffffffffffffffff16815260200190815260200160002060009054906101000a900460ff16905092915050565b8160006001600083815260200190815260200160002090506000600481111561170957611708611b8b565b5b8160060160009054906101000a900460ff16600481111561172d5761172c611b8b565b5b1461176d576040517f08c379a000000000000000000000000000000000000000000000000000000000815260040161176490612523565b60405180910390fd5b82600081116117b1576040517f08c379a00000000000000000000000000000000000000000000000000000000081526004016117a890611f1a565b60405180910390fd5b8334146117f3576040517f08c379a00000000000000000000000000000000000000000000000000000000081526004016117ea90612773565b60405180910390fd5b600060016000878152602001908152602001600020905042816007015411611850576040517f08c379a0000000000000000000000000000000000000000000000000000000008152600401611847906127df565b60405180910390fd5b60008160050160003373ffffffffffffffffffffffffffffffffffffffff1673ffffffffffffffffffffffffffffffffffffffff16815260200190815260200160002054036118b65760018160040160008282546118ae91906126f3565b925050819055505b848160020160008282546118ca91906126f3565b92505081905550848160050160003373ffffffffffffffffffffffffffffffffffffffff1673ffffffffffffffffffffffffffffffffffffffff168152602001908152602001600020600082825461192291906126f3565b925050819055503373ffffffffffffffffffffffffffffffffffffffff16867f89728d542d77fad9fe42c7d1f032c2b85f64cf938d754183b0e95359fbfac8a1876040516119709190611dbf565b60405180910390a3505050505050565b806000600160008381526020019081526020016000209050600060048111156119ac576119ab611b8b565b5b8160060160009054906101000a900460ff1660048111156119d0576119cf611b8b565b5b14611a10576040517f08c379a0000000000000000000000000000000000000000000000000000000008152600401611a0790612523565b60405180910390fd5b600060016000858152602001908152602001600020905060028160060160006101000a81548160ff02191690836004811115611a4f57611a4e611b8b565b5b0217905550837f8fb6fda973f304b2834c4147004045448416c05b253872373ac5b19f4a5b7a5d6002604051611a8591906123e4565b60405180910390a250505050565b600080fd5b6000819050919050565b611aab81611a98565b8114611ab657600080fd5b50565b600081359050611ac881611aa2565b92915050565b60008060408385031215611ae557611ae4611a93565b5b6000611af385828601611ab9565b9250506020611b0485828601611ab9565b9150509250929050565b600060208284031215611b2457611b23611a93565b5b6000611b3284828501611ab9565b91505092915050565b600073ffffffffffffffffffffffffffffffffffffffff82169050919050565b6000611b6682611b3b565b9050919050565b611b7681611b5b565b82525050565b611b8581611a98565b82525050565b7f4e487b7100000000000000000000000000000000000000000000000000000000600052602160045260246000fd5b60058110611bcb57611bca611b8b565b5b50565b6000819050611bdc82611bba565b919050565b6000611bec82611bce565b9050919050565b611bfc81611be1565b82525050565b600081519050919050565b600082825260208201905092915050565b60005b83811015611c3c578082015181840152602081019050611c21565b60008484015250505050565b6000601f19601f8301169050919050565b6000611c6482611c02565b611c6e8185611c0d565b9350611c7e818560208601611c1e565b611c8781611c48565b840191505092915050565b600061012082019050611ca8600083018c611b6d565b611cb5602083018b611b7c565b611cc2604083018a611b7c565b611ccf6060830189611b7c565b611cdc6080830188611b7c565b611ce960a0830187611bf3565b611cf660c0830186611b7c565b81810360e0830152611d088185611c59565b9050611d18610100830184611b7c565b9a9950505050505050505050565b611d2f81611b5b565b8114611d3a57600080fd5b50565b600081359050611d4c81611d26565b92915050565b600060208284031215611d6857611d67611a93565b5b6000611d7684828501611d3d565b91505092915050565b60008060408385031215611d9657611d95611a93565b5b6000611da485828601611ab9565b9250506020611db585828601611d3d565b9150509250929050565b6000602082019050611dd46000830184611b7c565b92915050565b6000602082019050611def6000830184611b6d565b92915050565b60008115159050919050565b611e0a81611df5565b8114611e1557600080fd5b50565b600081359050611e2781611e01565b92915050565b60008060408385031215611e4457611e43611a93565b5b6000611e5285828601611ab9565b9250506020611e6385828601611e18565b9150509250929050565b600060ff82169050919050565b611e8381611e6d565b82525050565b6000602082019050611e9e6000830184611e7a565b92915050565b611ead81611df5565b82525050565b6000602082019050611ec86000830184611ea4565b92915050565b7f476f616c206d757374206265206120706f736974697665206e756d6265720000600082015250565b6000611f04601e83611c0d565b9150611f0f82611ece565b602082019050919050565b60006020820190508181036000830152611f3381611ef7565b9050919050565b7f446561646c696e65206d75737420626520696e20746865206675747572650000600082015250565b6000611f70601e83611c0d565b9150611f7b82611f3a565b602082019050919050565b60006020820190508181036000830152611f9f81611f63565b9050919050565b7f4e487b7100000000000000000000000000000000000000000000000000000000600052601160045260246000fd5b6000611fe082611a98565b91507fffffffffffffffffffffffffffffffffffffffffffffffffffffffffffffffff820361201257612011611fa6565b5b600182019050919050565b60006040820190506120326000830185611b7c565b61203f6020830184611b7c565b9392505050565b7f4e487b7100000000000000000000000000000000000000000000000000000000600052602260045260246000fd5b6000600282049050600182168061208d57607f821691505b6020821081036120a05761209f612046565b5b50919050565b7f4e6f742074686520706c6174666f726d206f776e657200000000000000000000600082015250565b60006120dc601683611c0d565b91506120e7826120a6565b602082019050919050565b6000602082019050818103600083015261210b816120cf565b9050919050565b7f496e76616c696420616464726573730000000000000000000000000000000000600082015250565b6000612148600f83611c0d565b915061215382612112565b602082019050919050565b600060208201905081810360008301526121778161213b565b9050919050565b7f50726f6a656374206e6f742072656c656173656420746865206669727374207060008201527f6f7274696f6e2079657400000000000000000000000000000000000000000000602082015250565b60006121da602a83611c0d565b91506121e58261217e565b604082019050919050565b60006020820190508181036000830152612209816121cd565b9050919050565b7f4f6e6c7920666f756e6465722063616e20776974686472617700000000000000600082015250565b6000612246601983611c0d565b915061225182612210565b602082019050919050565b6000602082019050818103600083015261227581612239565b9050919050565b600061228782611a98565b915061229283611a98565b92508282026122a081611a98565b915082820484148315176122b7576122b6611fa6565b5b5092915050565b7f4e6f7420656e6f75676820636f6e6669726d6174696f6e2066726f6d20696e7660008201527f6573746f72000000000000000000000000000000000000000000000000000000602082015250565b600061231a602583611c0d565b9150612325826122be565b604082019050919050565b600060208201905081810360008301526123498161230d565b9050919050565b7f4e487b7100000000000000000000000000000000000000000000000000000000600052601260045260246000fd5b600061238a82611a98565b915061239583611a98565b9250826123a5576123a4612350565b5b828204905092915050565b60006123bb82611a98565b91506123c683611a98565b92508282039050818111156123de576123dd611fa6565b5b92915050565b60006020820190506123f96000830184611bf3565b92915050565b7f50726f6a656374206e6f74206661696c65640000000000000000000000000000600082015250565b6000612435601283611c0d565b9150612440826123ff565b602082019050919050565b6000602082019050818103600083015261246481612428565b9050919050565b7f4e6f20696e766573746d656e7420746f20726566756e64000000000000000000600082015250565b60006124a1601783611c0d565b91506124ac8261246b565b602082019050919050565b600060208201905081810360008301526124d081612494565b9050919050565b7f50726f6a656374206e6f74206163746976650000000000000000000000000000600082015250565b600061250d601283611c0d565b9150612518826124d7565b602082019050919050565b6000602082019050818103600083015261253c81612500565b9050919050565b7f50726f6a656374206e6f7420617070726f766564000000000000000000000000600082015250565b6000612579601483611c0d565b915061258482612543565b602082019050919050565b600060208201905081810360008301526125a88161256c565b9050919050565b7f476f616c206e6f74207265616368656400000000000000000000000000000000600082015250565b60006125e5601083611c0d565b91506125f0826125af565b602082019050919050565b60006020820190508181036000830152612614816125d8565b9050919050565b7f4e6f7420616e20696e766573746f720000000000000000000000000000000000600082015250565b6000612651600f83611c0d565b915061265c8261261b565b602082019050919050565b6000602082019050818103600083015261268081612644565b9050919050565b7f416c7265616479207265706f7274656400000000000000000000000000000000600082015250565b60006126bd601083611c0d565b91506126c882612687565b602082019050919050565b600060208201905081810360008301526126ec816126b0565b9050919050565b60006126fe82611a98565b915061270983611a98565b925082820190508082111561272157612720611fa6565b5b92915050565b7f53656e6420657861637420616d6f756e74000000000000000000000000000000600082015250565b600061275d601183611c0d565b915061276882612727565b602082019050919050565b6000602082019050818103600083015261278c81612750565b9050919050565b7f457870697265642070726f6a6563740000000000000000000000000000000000600082015250565b60006127c9600f83611c0d565b91506127d482612793565b602082019050919050565b600060208201905081810360008301526127f8816127bc565b905091905056fea2646970667358221220fee5f56f256e7d3ae735facc685b469cc252401cf764c2f51ccbf0fe4de2460264736f6c634300081c0033",
  "linkReferences": {},
  "deployedLinkReferences": {}
}