{
  "_format": "hh-sol-artifact-1",
  "contractName": "CrowdfundingManager",
  "sourceName": "contracts/CrowdfundingManager.sol",
  "abi": [
    {
      "anonymous": false,
      "inputs": [
        {
          "indexed": true,
          "internalType": "address",
          "name": "oldOwner",
          "type": "address"
        },
        {
          "indexed": true,
          "internalType": "address",
          "name": "newOwner",
          "type": "address"
        }
      ],
      "name": "CrowdfundingManagerUpdated",
      "type": "event"
    },
    {
      "anonymous": false,
      "inputs": [
        {
          "indexed": false,
          "internalType": "uint8",
          "name": "version",
          "type": "uint8"
        }
      ],
      "name": "Initialized",
      "type": "event"
    },
    {
      "anonymous": false,
      "inputs": [
        {
          "indexed": true,
          "internalType": "address",
          "name": "projectAddress",
          "type": "address"
        },
        {
          "indexed": true,
          "internalType": "address",
          "name": "founder",
          "type": "address"
        },
        {
          "indexed": false,
          "internalType": "uint256",
          "name": "fundingDeadline",
          "type": "uint256"
        },
        {
          "indexed": false,
          "internalType": "string",
          "name": "descCID",
          "type": "string"
        },
        {
          "indexed": false,
          "internalType": "string",
          "name": "photoCID",
          "type": "string"
        },
        {
          "indexed": false,
          "internalType": "string",
          "name": "socialMediaLinkCID",
          "type": "string"
        },
        {
          "indexed": false,
          "internalType": "string",
          "name": "tokenName",
          "type": "string"
        },
        {
          "indexed": false,
          "internalType": "string",
          "name": "tokenSymbolCID",
          "type": "string"
        }
      ],
      "name": "ProjectCreated",
      "type": "event"
    },
    {
      "anonymous": false,
      "inputs": [
        {
          "indexed": true,
          "internalType": "address",
          "name": "projectAddress",
          "type": "address"
        },
        {
          "indexed": false,
          "internalType": "uint256",
          "name": "projectId",
          "type": "uint256"
        },
        {
          "indexed": false,
          "internalType": "enum ICrowdfundingProject.ProjectStatus",
          "name": "status",
          "type": "uint8"
        }
      ],
      "name": "ProjectStatusUpdated",
      "type": "event"
    },
    {
      "inputs": [
        {
          "internalType": "string",
          "name": "projectName",
          "type": "string"
        },
        {
          "internalType": "uint256",
          "name": "fundingDeadline",
          "type": "uint256"
        },
        {
          "internalType": "string",
          "name": "descCID",
          "type": "string"
        },
        {
          "internalType": "string",
          "name": "photoCID",
          "type": "string"
        },
        {
          "internalType": "string",
          "name": "socialMediaLinkCID",
          "type": "string"
        },
        {
          "internalType": "string",
          "name": "tokenName",
          "type": "string"
        },
        {
          "internalType": "string",
          "name": "tokenSymbolCID",
          "type": "string"
        }
      ],
      "name": "createProject",
      "outputs": [],
      "stateMutability": "nonpayable",
      "type": "function"
    },
    {
      "inputs": [
        {
          "internalType": "address",
          "name": "founderAddress",
          "type": "address"
        },
        {
          "internalType": "uint256",
          "name": "",
          "type": "uint256"
        }
      ],
      "name": "founderProjectMap",
      "outputs": [
        {
          "internalType": "address",
          "name": "",
          "type": "address"
        }
      ],
      "stateMutability": "view",
      "type": "function"
    },
    {
      "inputs": [
        {
          "internalType": "address",
          "name": "founder",
          "type": "address"
        }
      ],
      "name": "getFounderProjects",
      "outputs": [
        {
          "internalType": "address[]",
          "name": "",
          "type": "address[]"
        }
      ],
      "stateMutability": "view",
      "type": "function"
    },
    {
      "inputs": [],
      "name": "getPlatformOwner",
      "outputs": [
        {
          "internalType": "address",
          "name": "",
          "type": "address"
        }
      ],
      "stateMutability": "view",
      "type": "function"
    },
    {
      "inputs": [
        {
          "internalType": "address",
          "name": "projectVotingManagerAddress",
          "type": "address"
        }
      ],
      "name": "initialize",
      "outputs": [],
      "stateMutability": "nonpayable",
      "type": "function"
    },
    {
      "inputs": [],
      "name": "platformOwner",
      "outputs": [
        {
          "internalType": "address",
          "name": "",
          "type": "address"
        }
      ],
      "stateMutability": "view",
      "type": "function"
    },
    {
      "inputs": [],
      "name": "projectCount",
      "outputs": [
        {
          "internalType": "uint256",
          "name": "",
          "type": "uint256"
        }
      ],
      "stateMutability": "view",
      "type": "function"
    },
    {
      "inputs": [
        {
          "internalType": "address",
          "name": "",
          "type": "address"
        }
      ],
      "name": "projects",
      "outputs": [
        {
          "internalType": "contract CrowdfundingProject",
          "name": "",
          "type": "address"
        }
      ],
      "stateMutability": "view",
      "type": "function"
    },
    {
      "inputs": [
        {
          "internalType": "address",
          "name": "newOwner",
          "type": "address"
        }
      ],
      "name": "setPlatformOwner",
      "outputs": [],
      "stateMutability": "nonpayable",
      "type": "function"
    }
  ],
  "bytecode": "0x6080604052348015600f57600080fd5b50615d558061001f6000396000f3fe608060405234801561001057600080fd5b50600436106100935760003560e01c80637e6fd78c116100665780637e6fd78c1461010d578063840e78fd14610120578063ab975e3b14610149578063c4d66de814610160578063f9d169301461017357600080fd5b8063025c6c511461009857806336fbad26146100ad5780634df8ccb1146100c957806354daabc3146100fa575b600080fd5b6100ab6100a63660046109b2565b610193565b005b6100b660025481565b6040519081526020015b60405180910390f35b6000546100e2906201000090046001600160a01b031681565b6040516001600160a01b0390911681526020016100c0565b6100ab610108366004610aeb565b6105b0565b6100e261011b366004610b0f565b6106b6565b6100e261012e366004610aeb565b6001602052600090815260409020546001600160a01b031681565b6000546201000090046001600160a01b03166100e2565b6100ab61016e366004610aeb565b6106ee565b610186610181366004610aeb565b61087d565b6040516100c09190610b3b565b600087511180156101a657506064875111155b61021d5760405162461bcd60e51b815260206004820152603860248201527f50726f6a656374206e616d65206c656e677468206d757374206265206265747760448201527f65656e203120616e64203130302063686172616374657273000000000000000060648201526084015b60405180910390fd5b845160201461023e5760405162461bcd60e51b815260040161021490610b87565b835160201461025f5760405162461bcd60e51b815260040161021490610b87565b82516020146102805760405162461bcd60e51b815260040161021490610b87565b4286116102cf5760405162461bcd60e51b815260206004820152601e60248201527f446561646c696e65206d75737420626520696e207468652066757475726500006044820152606401610214565b600280549060006102df83610bb2565b91905055506000306040516102f3906108f3565b6001600160a01b039091168152602001604051809103906000f08015801561031f573d6000803e3d6000fd5b506040516303a2572760e31b81529091506001600160a01b03821690631d12b938906103519086908690600401610c1f565b6020604051808303816000875af1158015610370573d6000803e3d6000fd5b505050506040513d601f19601f820116820180604052508101906103949190610c4d565b506000336002548a8a8a8a8a886040516103ad90610900565b6103be989796959493929190610c6a565b604051809103906000f0801580156103da573d6000803e3d6000fd5b50600354604051633164531f60e01b81526001600160a01b03808416600483015292935083926000921690633164531f906024016020604051808303816000875af115801561042d573d6000803e3d6000fd5b505050506040513d601f19601f820116820180604052508101906104519190610c4d565b604051639e259dc760e01b81526001600160a01b03808316600483015291925090841690639e259dc790602401600060405180830381600087803b15801561049857600080fd5b505af11580156104ac573d6000803e3d6000fd5b505060405163457df9a560e11b81526001600160a01b03858116600483015287169250638afbf34a9150602401600060405180830381600087803b1580156104f357600080fd5b505af1158015610507573d6000803e3d6000fd5b5050506001600160a01b0380841660008181526001602081815260408084208054968b166001600160a01b03199788161790553380855260048352818520805494850181558552919093209091018054909416831790935551919250907f64fd1985f48c5ac1a538ed4f775cd609da46a417fef75a371472fdf6a7588d0c9061059b908e908e908e908e908e908e90610cf1565b60405180910390a35050505050505050505050565b6000546201000090046001600160a01b031633146106095760405162461bcd60e51b81526020600482015260166024820152752737ba103a343290383630ba3337b9369037bbb732b960511b6044820152606401610214565b6000546001600160a01b0362010000909104811690821661065e5760405162461bcd60e51b815260206004820152600f60248201526e496e76616c6964206164647265737360881b6044820152606401610214565b6000805462010000600160b01b031916620100006001600160a01b038581169182029290921783556040519092918416917fc2cdf8f40c11833063287edbdf7f57b90971846eab727e55b6c57f04b1fd685291a35050565b600460205281600052604060002081815481106106d257600080fd5b6000918252602090912001546001600160a01b03169150829050565b600054610100900460ff161580801561070e5750600054600160ff909116105b806107285750303b158015610728575060005460ff166001145b61078b5760405162461bcd60e51b815260206004820152602e60248201527f496e697469616c697a61626c653a20636f6e747261637420697320616c72656160448201526d191e481a5b9a5d1a585b1a5e995960921b6064820152608401610214565b6000805460ff1916600117905580156107ae576000805461ff0019166101001790555b6000805462010000600160b01b031916336201000002179055600380546001600160a01b0319166001600160a01b038416908117909155604051630913902760e31b815230600482015263489c813890602401600060405180830381600087803b15801561081b57600080fd5b505af115801561082f573d6000803e3d6000fd5b505050508015610879576000805461ff0019169055604051600181527f7f26b83ff96e1f2b6a682f133852f6798a09c465da95921460cefb38474024989060200160405180910390a15b5050565b6001600160a01b0381166000908152600460209081526040918290208054835181840281018401909452808452606093928301828280156108e757602002820191906000526020600020905b81546001600160a01b031681526001909101906020018083116108c9575b50505050509050919050565b61155b80610d6683390190565b613a5f806122c183390190565b634e487b7160e01b600052604160045260246000fd5b600082601f83011261093457600080fd5b813567ffffffffffffffff81111561094e5761094e61090d565b604051601f8201601f19908116603f0116810167ffffffffffffffff8111828210171561097d5761097d61090d565b60405281815283820160200185101561099557600080fd5b816020850160208301376000918101602001919091529392505050565b600080600080600080600060e0888a0312156109cd57600080fd5b873567ffffffffffffffff8111156109e457600080fd5b6109f08a828b01610923565b97505060208801359550604088013567ffffffffffffffff811115610a1457600080fd5b610a208a828b01610923565b955050606088013567ffffffffffffffff811115610a3d57600080fd5b610a498a828b01610923565b945050608088013567ffffffffffffffff811115610a6657600080fd5b610a728a828b01610923565b93505060a088013567ffffffffffffffff811115610a8f57600080fd5b610a9b8a828b01610923565b92505060c088013567ffffffffffffffff811115610ab857600080fd5b610ac48a828b01610923565b91505092959891949750929550565b6001600160a01b0381168114610ae857600080fd5b50565b600060208284031215610afd57600080fd5b8135610b0881610ad3565b9392505050565b60008060408385031215610b2257600080fd5b8235610b2d81610ad3565b946020939093013593505050565b602080825282518282018190526000918401906040840190835b81811015610b7c5783516001600160a01b0316835260209384019390920191600101610b55565b509095945050505050565b602080825260119082015270092dcecc2d8d2c84092a08ca640d0c2e6d607b1b604082015260600190565b600060018201610bd257634e487b7160e01b600052601160045260246000fd5b5060010190565b6000815180845260005b81811015610bff57602081850181015186830182015201610be3565b506000602082860101526020601f19601f83011685010191505092915050565b604081526000610c326040830185610bd9565b8281036020840152610c448185610bd9565b95945050505050565b600060208284031215610c5f57600080fd5b8151610b0881610ad3565b60018060a01b038916815287602082015261010060408201526000610c93610100830189610bd9565b8760608401528281036080840152610cab8188610bd9565b905082810360a0840152610cbf8187610bd9565b905082810360c0840152610cd38186610bd9565b91505060018060a01b03831660e08301529998505050505050505050565b86815260c060208201526000610d0a60c0830188610bd9565b8281036040840152610d1c8188610bd9565b90508281036060840152610d308187610bd9565b90508281036080840152610d448186610bd9565b905082810360a0840152610d588185610bd9565b999850505050505050505056fe6080604052348015600f57600080fd5b5060405161155b38038061155b833981016040819052602c9160b2565b6001600160a01b03811660855760405162461bcd60e51b815260206004820152601760248201527f496e76616c6964206d616e616765722061646472657373000000000000000000604482015260640160405180910390fd5b600080546001600160a01b039092166001600160a01b0319928316179055600280549091163317905560e0565b60006020828403121560c357600080fd5b81516001600160a01b038116811460d957600080fd5b9392505050565b61146c806100ef6000396000f3fe608060405234801561001057600080fd5b506004361061007d5760003560e01c80634b60ce771161005b5780634b60ce77146100d95780638afbf34a146100ec5780638da5cb5b146100ff578063a3e751811461011257600080fd5b80630ae78424146100825780631d12b938146100b1578063449a52f8146100c4575b600080fd5b61009561009036600461064d565b610125565b6040516001600160a01b03909116815260200160405180910390f35b6100956100bf36600461064d565b61021c565b6100d76100d23660046106d2565b6103b9565b005b600154610095906001600160a01b031681565b6100d76100fa3660046106fc565b6104f2565b600254610095906001600160a01b031681565b600054610095906001600160a01b031681565b6040516001600160601b03193060601b166020820152600090819060340160405160208183030381529060405280519060200120905060006040518060200161016d9061059b565b601f1982820381018352601f9091011660408190526101949087908790309060200161076e565b60408051601f19818403018152908290526101b292916020016107ac565b60408051808303601f1901815282825280516020918201206001600160f81b0319828501523060601b6001600160601b0319166021850152603584019590955260558084019590955281518084039095018552607590920190528251920191909120949350505050565b600080546001600160a01b031633148061024057506002546001600160a01b031633145b6102655760405162461bcd60e51b815260040161025c906107db565b60405180910390fd5b6001546001600160a01b0316156102b75760405162461bcd60e51b8152602060048201526016602482015275151bdad95b88185b1c9958591e4819195c1b1bde595960521b604482015260640161025c565b6040516001600160601b03193060601b1660208201526000906034016040516020818303038152906040528051906020012090506000604051806020016102fd9061059b565b601f1982820381018352601f9091011660408190526103249087908790309060200161076e565b60408051601f198184030181529082905261034292916020016107ac565b6040516020818303038152906040529050818151602083016000f59250823b61036a57600080fd5b600180546001600160a01b0319166001600160a01b0385169081179091556040517f91d24864a084ab70b268a1f865e757ca12006cf298d763b6be697302ef86498c90600090a2505092915050565b6000546001600160a01b03163314806103dc57506002546001600160a01b031633145b6103f85760405162461bcd60e51b815260040161025c906107db565b6001546001600160a01b03166104455760405162461bcd60e51b8152602060048201526012602482015271151bdad95b881b9bdd0819195c1b1bde595960721b604482015260640161025c565b6001546040516340c10f1960e01b81526001600160a01b03848116600483015260248201849052909116906340c10f1990604401600060405180830381600087803b15801561049357600080fd5b505af11580156104a7573d6000803e3d6000fd5b50505050816001600160a01b03167f3f2c9d57c068687834f0de942a9babb9e5acab57d516d3480a3c16ee165a4273826040516104e691815260200190565b60405180910390a25050565b6000546001600160a01b031633148061051557506002546001600160a01b031633145b6105315760405162461bcd60e51b815260040161025c906107db565b6001600160a01b0381166105795760405162461bcd60e51b815260206004820152600f60248201526e496e76616c6964206164647265737360881b604482015260640161025c565b600080546001600160a01b0319166001600160a01b0392909216919091179055565b610c338061080483390190565b634e487b7160e01b600052604160045260246000fd5b600082601f8301126105cf57600080fd5b813567ffffffffffffffff8111156105e9576105e96105a8565b604051601f8201601f19908116603f0116810167ffffffffffffffff81118282101715610618576106186105a8565b60405281815283820160200185101561063057600080fd5b816020850160208301376000918101602001919091529392505050565b6000806040838503121561066057600080fd5b823567ffffffffffffffff81111561067757600080fd5b610683858286016105be565b925050602083013567ffffffffffffffff8111156106a057600080fd5b6106ac858286016105be565b9150509250929050565b80356001600160a01b03811681146106cd57600080fd5b919050565b600080604083850312156106e557600080fd5b6106ee836106b6565b946020939093013593505050565b60006020828403121561070e57600080fd5b610717826106b6565b9392505050565b60005b83811015610739578181015183820152602001610721565b50506000910152565b6000815180845261075a81602086016020860161071e565b601f01601f19169290920160200192915050565b6060815260006107816060830186610742565b82810360208401526107938186610742565b91505060018060a01b0383166040830152949350505050565b600083516107be81846020880161071e565b8351908301906107d281836020880161071e565b01949350505050565b6020808252600e908201526d139bdd08185d5d1a1bdc9a5e995960921b60408201526060019056fe608060405234801561001057600080fd5b50604051610c33380380610c3383398101604081905261002f91610178565b8282600361003d838261028c565b50600461004a828261028c565b5050506001600160a01b0381166100975760405162461bcd60e51b815260206004820152600d60248201526c24b73b30b634b21037bbb732b960991b604482015260640160405180910390fd5b600580546001600160a01b0319166001600160a01b03929092169190911790555061034a9050565b634e487b7160e01b600052604160045260246000fd5b600082601f8301126100e657600080fd5b81516001600160401b038111156100ff576100ff6100bf565b604051601f8201601f19908116603f011681016001600160401b038111828210171561012d5761012d6100bf565b60405281815283820160200185101561014557600080fd5b60005b8281101561016457602081860181015183830182015201610148565b506000918101602001919091529392505050565b60008060006060848603121561018d57600080fd5b83516001600160401b038111156101a357600080fd5b6101af868287016100d5565b602086015190945090506001600160401b038111156101cd57600080fd5b6101d9868287016100d5565b604086015190935090506001600160a01b03811681146101f857600080fd5b809150509250925092565b600181811c9082168061021757607f821691505b60208210810361023757634e487b7160e01b600052602260045260246000fd5b50919050565b601f82111561028757806000526020600020601f840160051c810160208510156102645750805b601f840160051c820191505b818110156102845760008155600101610270565b50505b505050565b81516001600160401b038111156102a5576102a56100bf565b6102b9816102b38454610203565b8461023d565b6020601f8211600181146102ed57600083156102d55750848201515b600019600385901b1c1916600184901b178455610284565b600084815260208120601f198516915b8281101561031d57878501518255602094850194600190920191016102fd565b508482101561033b5786840151600019600387901b60f8161c191681555b50505050600190811b01905550565b6108da806103596000396000f3fe608060405234801561001057600080fd5b50600436106100b45760003560e01c806370a082311161007157806370a08231146101435780638da5cb5b1461016c57806395d89b4114610197578063a9059cbb1461019f578063dd62ed3e146101b2578063f2fde38b146101eb57600080fd5b806306fdde03146100b9578063095ea7b3146100d757806318160ddd146100fa57806323b872dd1461010c578063313ce5671461011f57806340c10f191461012e575b600080fd5b6100c16101fe565b6040516100ce9190610723565b60405180910390f35b6100ea6100e536600461078d565b610290565b60405190151581526020016100ce565b6002545b6040519081526020016100ce565b6100ea61011a3660046107b7565b6102aa565b604051601281526020016100ce565b61014161013c36600461078d565b6102ce565b005b6100fe6101513660046107f4565b6001600160a01b031660009081526020819052604090205490565b60055461017f906001600160a01b031681565b6040516001600160a01b0390911681526020016100ce565b6100c161032b565b6100ea6101ad36600461078d565b61033a565b6100fe6101c0366004610816565b6001600160a01b03918216600090815260016020908152604080832093909416825291909152205490565b6101416101f93660046107f4565b610348565b60606003805461020d90610849565b80601f016020809104026020016040519081016040528092919081815260200182805461023990610849565b80156102865780601f1061025b57610100808354040283529160200191610286565b820191906000526020600020905b81548152906001019060200180831161026957829003601f168201915b5050505050905090565b60003361029e8185856103fe565b60019150505b92915050565b6000336102b8858285610410565b6102c385858561048f565b506001949350505050565b6005546001600160a01b0316331461031d5760405162461bcd60e51b815260206004820152600d60248201526c2737ba103a34329037bbb732b960991b60448201526064015b60405180910390fd5b61032782826104ee565b5050565b60606004805461020d90610849565b60003361029e81858561048f565b6005546001600160a01b031633146103925760405162461bcd60e51b815260206004820152600d60248201526c2737ba103a34329037bbb732b960991b6044820152606401610314565b6001600160a01b0381166103dc5760405162461bcd60e51b815260206004820152601160248201527024b73b30b634b2103732bb9037bbb732b960791b6044820152606401610314565b600580546001600160a01b0319166001600160a01b0392909216919091179055565b61040b8383836001610524565b505050565b6001600160a01b03838116600090815260016020908152604080832093861683529290522054600019811015610489578181101561047a57604051637dc7a0d960e11b81526001600160a01b03841660048201526024810182905260448101839052606401610314565b61048984848484036000610524565b50505050565b6001600160a01b0383166104b957604051634b637e8f60e11b815260006004820152602401610314565b6001600160a01b0382166104e35760405163ec442f0560e01b815260006004820152602401610314565b61040b8383836105f9565b6001600160a01b0382166105185760405163ec442f0560e01b815260006004820152602401610314565b610327600083836105f9565b6001600160a01b03841661054e5760405163e602df0560e01b815260006004820152602401610314565b6001600160a01b03831661057857604051634a1406b160e11b815260006004820152602401610314565b6001600160a01b038085166000908152600160209081526040808320938716835292905220829055801561048957826001600160a01b0316846001600160a01b03167f8c5be1e5ebec7d5bd14f71427d1e84f3dd0314c0f7b2291e5b200ac8c7c3b925846040516105eb91815260200190565b60405180910390a350505050565b6001600160a01b0383166106245780600260008282546106199190610883565b909155506106969050565b6001600160a01b038316600090815260208190526040902054818110156106775760405163391434e360e21b81526001600160a01b03851660048201526024810182905260448101839052606401610314565b6001600160a01b03841660009081526020819052604090209082900390555b6001600160a01b0382166106b2576002805482900390556106d1565b6001600160a01b03821660009081526020819052604090208054820190555b816001600160a01b0316836001600160a01b03167fddf252ad1be2c89b69c2b068fc378daa952ba7f163c4a11628f55a4df523b3ef8360405161071691815260200190565b60405180910390a3505050565b602081526000825180602084015260005b818110156107515760208186018101516040868401015201610734565b506000604082850101526040601f19601f83011684010191505092915050565b80356001600160a01b038116811461078857600080fd5b919050565b600080604083850312156107a057600080fd5b6107a983610771565b946020939093013593505050565b6000806000606084860312156107cc57600080fd5b6107d584610771565b92506107e360208501610771565b929592945050506040919091013590565b60006020828403121561080657600080fd5b61080f82610771565b9392505050565b6000806040838503121561082957600080fd5b61083283610771565b915061084060208401610771565b90509250929050565b600181811c9082168061085d57607f821691505b60208210810361087d57634e487b7160e01b600052602260045260246000fd5b50919050565b808201808211156102a457634e487b7160e01b600052601160045260246000fdfea264697066735822122046b687075f67ddce0e892adca5c59ed8c7546432790001492afa38752015157364736f6c634300081c0033a2646970667358221220e1fd292af1c4018152456964cd8af6a5ec6dd361f057f4875cd77070d2f968c064736f6c634300081c003360806040526012805461ffff191661140117905534801561001f57600080fd5b50604051613a5f380380613a5f83398101604081905261003e916101f9565b600380546001600160a01b0319166001600160a01b038a1617905560028790556009859055600461006f878261037a565b50600c61007c858261037a565b50600d610089848261037a565b50600e610096838261037a565b50600f8054336001600160a01b031991821617909155600080549091166001600160a01b0383161790556040516100cc90610117565b604051809103906000f0801580156100e8573d6000803e3d6000fd5b50600180546001600160a01b0319166001600160a01b0392909216919091179055506104389650505050505050565b610582806134dd83390190565b80516001600160a01b038116811461013b57600080fd5b919050565b634e487b7160e01b600052604160045260246000fd5b600082601f83011261016757600080fd5b81516001600160401b0381111561018057610180610140565b604051601f8201601f19908116603f011681016001600160401b03811182821017156101ae576101ae610140565b6040528181528382016020018510156101c657600080fd5b60005b828110156101e5576020818601810151838301820152016101c9565b506000918101602001919091529392505050565b600080600080600080600080610100898b03121561021657600080fd5b61021f89610124565b60208a015160408b015191995097506001600160401b0381111561024257600080fd5b61024e8b828c01610156565b60608b015160808c0151919850965090506001600160401b0381111561027357600080fd5b61027f8b828c01610156565b60a08b015190955090506001600160401b0381111561029d57600080fd5b6102a98b828c01610156565b60c08b015190945090506001600160401b038111156102c757600080fd5b6102d38b828c01610156565b9250506102e260e08a01610124565b90509295985092959890939650565b600181811c9082168061030557607f821691505b60208210810361032557634e487b7160e01b600052602260045260246000fd5b50919050565b601f82111561037557806000526020600020601f840160051c810160208510156103525750805b601f840160051c820191505b81811015610372576000815560010161035e565b50505b505050565b81516001600160401b0381111561039357610393610140565b6103a7816103a184546102f1565b8461032b565b6020601f8211600181146103db57600083156103c35750848201515b600019600385901b1c1916600184901b178455610372565b600084815260208120601f198516915b8281101561040b57878501518255602094850194600190920191016103eb565b50848210156104295786840151600019600387901b60f8161c191681555b50505050600190811b01905550565b613096806104476000396000f3fe6080604052600436106102675760003560e01c8063590e1ae3116101445780639f76fd04116100b6578063d02ee3cb1161007a578063d02ee3cb146106d9578063d8ec9e2e146106ee578063e89e4ed614610703578063f197534814610734578063f299decf14610754578063fa8e09d51461078357600080fd5b80639f76fd0414610658578063ad98ebaf1461066d578063b03048131461068d578063b1bb02fd146106a3578063c3966409146106c457600080fd5b8063741bef1a11610108578063741bef1a146105af578063796b23bb146105cf578063946bcc30146105e557806394796755146106035780639e259dc7146106185780639f369aa91461063857600080fd5b8063590e1ae3146105365780636175cf451461054257806365abd912146105625780636f7e463a1461057857806373ca1d691461059a57600080fd5b8063389b7533116101dd5780633fafa127116101a15780633fafa127146104995780633fdd7ab5146104af5780633feb5f2b146104c45780634d853ee5146104e45780634e69d56014610504578063560d52d41461051c57600080fd5b8063389b75331461041957806339b49d2f146104395780633baf5fc9146104595780633ccfd60b1461046f5780633d2304871461048457600080fd5b8063146b58df1161022f578063146b58df14610311578063200d2ed2146103475780632442e1cb1461036e5780632828b05e1461039b578063299a017c146103cc5780632a709b14146103e157600080fd5b806306fdde031461026c5780630a8b7826146102975780630bd18d7a146102ac5780630cf01051146102e757806311d576b3146102fc575b600080fd5b34801561027857600080fd5b50610281610798565b60405161028e9190612864565b60405180910390f35b6102aa6102a536600461294d565b610826565b005b3480156102b857600080fd5b506102d96102c736600461299f565b60076020526000908152604090205481565b60405190815260200161028e565b3480156102f357600080fd5b506102aa610c50565b34801561030857600080fd5b506102aa610d97565b34801561031d57600080fd5b506102d961032c36600461299f565b6001600160a01b031660009081526007602052604090205490565b34801561035357600080fd5b506008546103619060ff1681565b60405161028e91906129e6565b34801561037a57600080fd5b5061038e6103893660046129fa565b61105d565b60405161028e9190612a82565b3480156103a757600080fd5b506012546103ba90610100900460ff1681565b60405160ff909116815260200161028e565b3480156103d857600080fd5b50600b546102d9565b3480156103ed57600080fd5b50600054610401906001600160a01b031681565b6040516001600160a01b03909116815260200161028e565b34801561042557600080fd5b506102aa6104343660046129fa565b611252565b34801561044557600080fd5b50601054610401906001600160a01b031681565b34801561046557600080fd5b506102d960065481565b34801561047b57600080fd5b506102aa61140e565b34801561049057600080fd5b50610281611716565b3480156104a557600080fd5b506102d960025481565b3480156104bb57600080fd5b506005546102d9565b3480156104d057600080fd5b506104016104df3660046129fa565b611723565b3480156104f057600080fd5b50600354610401906001600160a01b031681565b34801561051057600080fd5b5060085460ff16610361565b34801561052857600080fd5b506012546103ba9060ff1681565b3480156102aa57600080fd5b34801561054e57600080fd5b506102aa61055d366004612a95565b505050565b34801561056e57600080fd5b506102d960055481565b34801561058457600080fd5b5061058d61174d565b60405161028e9190612b07565b3480156105a657600080fd5b506006546102d9565b3480156105bb57600080fd5b50600154610401906001600160a01b031681565b3480156105db57600080fd5b506102d960095481565b3480156105f157600080fd5b506003546001600160a01b0316610401565b34801561060f57600080fd5b506102aa611917565b34801561062457600080fd5b506102aa61063336600461299f565b611961565b34801561064457600080fd5b506102aa610653366004612b6c565b611a53565b34801561066457600080fd5b506102aa611c77565b34801561067957600080fd5b50600f54610401906001600160a01b031681565b34801561069957600080fd5b506102d9600b5481565b3480156106af57600080fd5b506102d96106be36600461299f565b50600190565b3480156106d057600080fd5b506102aa611e8e565b3480156106e557600080fd5b506102d9611f0d565b3480156106fa57600080fd5b50610281611f5c565b34801561070f57600080fd5b5061072361071e3660046129fa565b611f69565b60405161028e959493929190612b8e565b34801561074057600080fd5b506102aa61074f366004612bd9565b6120c4565b34801561076057600080fd5b5060085461077390610100900460ff1681565b604051901515815260200161028e565b34801561078f57600080fd5b506102816124e8565b600480546107a590612c52565b80601f01602080910402602001604051908101604052809291908181526020018280546107d190612c52565b801561081e5780601f106107f35761010080835404028352916020019161081e565b820191906000526020600020905b81548152906001019060200180831161080157829003601f168201915b505050505081565b600160085460ff16600481111561083f5761083f6129bc565b1461088a5760405162461bcd60e51b815260206004820152601660248201527550726f6a656374206973206e6f742066756e64696e6760501b60448201526064015b60405180910390fd5b42600954116108cd5760405162461bcd60e51b815260206004820152600f60248201526e115e1c1a5c9959081c1c9bda9958dd608a1b6044820152606401610881565b600034116109165760405162461bcd60e51b81526020600482015260166024820152750696e766573746d656e74206d757374206265203e20360541b6044820152606401610881565b306001600160a01b031663d02ee3cb6040518163ffffffff1660e01b8152600401602060405180830381865afa158015610954573d6000803e3d6000fd5b505050506040513d601f19601f820116820180604052508101906109789190612c86565b346005546109869190612cb5565b11156109d45760405162461bcd60e51b815260206004820152601f60248201527f496e766573746d656e7420657863656564732066756e64696e6720676f616c006044820152606401610881565b8051602082012034907fc4ae21aac0c6549d71dd96035b7e0bdb6c79ebdba8891b666115bc976d16a29e14610a7957600154604051630544c69560e31b81526001600160a01b0390911690632a2634a890610a359085903490600401612cc8565b602060405180830381865afa158015610a52573d6000803e3d6000fd5b505050506040513d601f19601f82011682018060405250810190610a769190612c86565b90505b610aad604051806040016040528060128152602001712a3432903ab9b21030b6b7bab73a1034b99d60711b815250826124f5565b6000546040516308934a5f60e31b8152336004820152602481018390526001600160a01b039091169063449a52f890604401600060405180830381600087803b158015610af957600080fd5b505af1158015610b0d573d6000803e3d6000fd5b505050508060056000828254610b239190612cb5565b90915550503360009081526007602052604081208054839290610b47908490612cb5565b9091555050336000908152600760205260408120549003610ba557601180546001810182556000919091527f31ecc21a745e3968a04e9570e4425bc18fa8019c68028196b546d1669c200c680180546001600160a01b031916331790555b306001600160a01b031663d02ee3cb6040518163ffffffff1660e01b8152600401602060405180830381865afa158015610be3573d6000803e3d6000fd5b505050506040513d601f19601f82011682018060405250810190610c079190612c86565b60055410610c1757610c1761253a565b60405181815233907f07146ef3ff2146eaf34fa4d392d4c56663333b682654b3123bf270f9ec529f319060200160405180910390a25050565b6003546001600160a01b03163314610c7a5760405162461bcd60e51b815260040161088190612cea565b600a54610cbf5760405162461bcd60e51b8152602060048201526013602482015272139bc81b5a5b195cdd1bdb995cc81859191959606a1b6044820152606401610881565b600060085460ff166004811115610cd857610cd86129bc565b14610d3b5760405162461bcd60e51b815260206004820152602d60248201527f43616e206f6e6c792073746172742066756e64696e672069662070726f6a656360448201526c7420697320696e61637469766560981b6064820152608401610881565b600880546001919060ff191682805b02179055506008546040517faa490fe8d9a0e22f3c6dce5322273cfd002e3a554424a5bfd2185174eeec8d0e91610d8d9160ff8083169261010090041690612d32565b60405180910390a1565b600260085460ff166004811115610db057610db06129bc565b14610dcd5760405162461bcd60e51b815260040161088190612d4f565b600854610100900460ff16610df45760405162461bcd60e51b815260040161088190612d7e565b6003546001600160a01b03163314610e1e5760405162461bcd60e51b815260040161088190612cea565b6000610e2b600b5461105d565b9050600081608001516002811115610e4557610e456129bc565b14610ea85760405162461bcd60e51b815260206004820152602d60248201527f54686973206d696c6573746f6e6520697320616c7265616479206661696c656460448201526c081bdc8818dbdb5c1b195d1959609a1b6064820152608401610881565b601054600b5460405163077d635f60e51b81526004810191909152600060248201526001600160a01b039091169063efac6be090604401600060405180830381600087803b158015610ef957600080fd5b505af1158015610f0d573d6000803e3d6000fd5b5050601054600b54604051630a9b0d1160e11b815260048101919091526000196024820152600093506001600160a01b0390911691506315361a229060440161010060405180830381865afa158015610f6a573d6000803e3d6000fd5b505050506040513d601f19601f82011682018060405250810190610f8e9190612dc9565b60c00151601054600b54604051630a9b0d1160e11b8152600481019190915260001960248201529192506000916001600160a01b03909116906315361a229060440161010060405180830381865afa158015610fee573d6000803e3d6000fd5b505050506040513d601f19601f820116820180604052508101906110129190612dc9565b60a0015190507fb7a0ddf0e7f4aaa2cbe6d47e12b9dabd58b2282309ada6af944b7b708a6f74cd600b54600183856040516110509493929190612e50565b60405180910390a1505050565b6110656127df565b600a5482106110b65760405162461bcd60e51b815260206004820152601860248201527f4d696c6573746f6e6520646f6573206e6f7420657869737400000000000000006044820152606401610881565b600a82815481106110c9576110c9612e82565b90600052602060002090600502016040518060a00160405290816000820180546110f290612c52565b80601f016020809104026020016040519081016040528092919081815260200182805461111e90612c52565b801561116b5780601f106111405761010080835404028352916020019161116b565b820191906000526020600020905b81548152906001019060200180831161114e57829003601f168201915b5050505050815260200160018201805461118490612c52565b80601f01602080910402602001604051908101604052809291908181526020018280546111b090612c52565b80156111fd5780601f106111d2576101008083540402835291602001916111fd565b820191906000526020600020905b8154815290600101906020018083116111e057829003601f168201915b5050509183525050600282810154602083015260038301546040830152600483015460609092019160ff1690811115611238576112386129bc565b6002811115611249576112496129bc565b90525092915050565b600260085460ff16600481111561126b5761126b6129bc565b146112885760405162461bcd60e51b815260040161088190612d4f565b600854610100900460ff166112af5760405162461bcd60e51b815260040161088190612d7e565b6000600a82815481106112c4576112c4612e82565b600091825260208220601054604051630a9b0d1160e11b815260048101879052600019602482015260059390930290910193506001600160a01b0316906315361a229060440161010060405180830381865afa158015611328573d6000803e3d6000fd5b505050506040513d601f19601f8201168201806040525081019061134c9190612dc9565b9050600081602001516001811115611366576113666129bc565b146113a95760405162461bcd60e51b8152602060048201526013602482015272496e76616c696420766f74696e67207479706560681b6044820152606401610881565b6001815160028111156113be576113be6129bc565b146114015760405162461bcd60e51b8152602060048201526013602482015272159bdd1a5b99c81b9bdd08185c1c1c9bdd9959606a1b6044820152606401610881565b60e0015160039091015550565b6003546001600160a01b031633146114385760405162461bcd60e51b815260040161088190612cea565b600260085460ff166004811115611451576114516129bc565b14806114735750600460085460ff166004811115611471576114716129bc565b145b61148f5760405162461bcd60e51b815260040161088190612d4f565b60006006546005546114a19190612e98565b9050600081116114fd5760405162461bcd60e51b815260206004820152602160248201527f4e6f2066756e647320617661696c61626c6520666f72207769746864726177616044820152601b60fa1b6064820152608401610881565b60125481906000906064906115159060ff1684612eab565b61151f9190612ec2565b9050600061152d8284612e98565b90508147101561157f5760405162461bcd60e51b815260206004820152601c60248201527f496e73756666696369656e742062616c616e636520666f7220666565000000006044820152606401610881565b82600560008282546115919190612e98565b9091555050600f546040805163ab975e3b60e01b815290516001600160a01b039092169163ab975e3b916004808201926020929091908290030181865afa1580156115e0573d6000803e3d6000fd5b505050506040513d601f19601f820116820180604052508101906116049190612ee4565b6001600160a01b03166108fc839081150290604051600060405180830381858888f1935050505015801561163c573d6000803e3d6000fd5b506003546040516001600160a01b039091169082156108fc029083906000818181858888f19350505050158015611677573d6000803e3d6000fd5b506008546040517faa490fe8d9a0e22f3c6dce5322273cfd002e3a554424a5bfd2185174eeec8d0e916116b69160ff8083169261010090041690612d32565b60405180910390a1600354600254604080519182526020820184905281018490526001600160a01b03909116907f3dbb1a26f29aef1264c12ca1285deb60cca5666d8b17100c7ea1602c0a4014f69060600160405180910390a250505050565b600e80546107a590612c52565b6011818154811061173357600080fd5b6000918252602090912001546001600160a01b0316905081565b6060600a805480602002602001604051908101604052809291908181526020016000905b8282101561190e57838290600052602060002090600502016040518060a00160405290816000820180546117a490612c52565b80601f01602080910402602001604051908101604052809291908181526020018280546117d090612c52565b801561181d5780601f106117f25761010080835404028352916020019161181d565b820191906000526020600020905b81548152906001019060200180831161180057829003601f168201915b5050505050815260200160018201805461183690612c52565b80601f016020809104026020016040519081016040528092919081815260200182805461186290612c52565b80156118af5780601f10611884576101008083540402835291602001916118af565b820191906000526020600020905b81548152906001019060200180831161189257829003601f168201915b5050509183525050600282810154602083015260038301546040830152600483015460609092019160ff16908111156118ea576118ea6129bc565b60028111156118fb576118fb6129bc565b8152505081526020019060010190611771565b50505050905090565b600260085460ff166004811115611930576119306129bc565b1461194d5760405162461bcd60e51b815260040161088190612d4f565b600880546003919060ff1916600183610d4a565b600f546001600160a01b031633146119d85760405162461bcd60e51b815260206004820152603460248201527f4f6e6c79207468652070726f6a656374206d616e616765722063616e207365746044820152732074686520766f74696e6720706c6174666f726d60601b6064820152608401610881565b6010546001600160a01b031615611a315760405162461bcd60e51b815260206004820152601b60248201527f566f74696e6720706c6174666f726d20616c72656164792073657400000000006044820152606401610881565b601080546001600160a01b0319166001600160a01b0392909216919091179055565b600260085460ff166004811115611a6c57611a6c6129bc565b14611a895760405162461bcd60e51b815260040161088190612d4f565b600854610100900460ff16611ab05760405162461bcd60e51b815260040161088190612d7e565b6003546001600160a01b03163314611ada5760405162461bcd60e51b815260040161088190612cea565b6000611ae58361105d565b905042816060015111611b485760405162461bcd60e51b815260206004820152602560248201527f4d696c6573746f6e6520646561646c696e652068617320616c72656164792070604482015264185cdcd95960da1b6064820152608401610881565b80606001518211611bb35760405162461bcd60e51b815260206004820152602f60248201527f4e657720646561646c696e65206d75737420626520616674657220746865206360448201526e757272656e7420646561646c696e6560881b6064820152608401610881565b428211611c0d5760405162461bcd60e51b815260206004820152602260248201527f4e657720646561646c696e65206d75737420626520696e207468652066757475604482015261726560f01b6064820152608401610881565b60105460405163077d635f60e51b815260048101859052602481018490526001600160a01b039091169063efac6be090604401600060405180830381600087803b158015611c5a57600080fd5b505af1158015611c6e573d6000803e3d6000fd5b50505050505050565b600260085460ff166004811115611c9057611c906129bc565b14611cad5760405162461bcd60e51b815260040161088190612d4f565b600854610100900460ff16611cd45760405162461bcd60e51b815260040161088190612d7e565b6000600a600b5481548110611ceb57611ceb612e82565b600091825260208220601054600b54604051630a9b0d1160e11b8152600590940290920194506001600160a01b0316916315361a2291611d3a9160001990600401918252602082015260400190565b61010060405180830381865afa158015611d58573d6000803e3d6000fd5b505050506040513d601f19601f82011682018060405250810190611d7c9190612dc9565b9050600181602001516001811115611d9657611d966129bc565b14611dd95760405162461bcd60e51b8152602060048201526013602482015272496e76616c696420766f74696e67207479706560681b6044820152606401610881565b600181516002811115611dee57611dee6129bc565b14611e315760405162461bcd60e51b8152602060048201526013602482015272159bdd1a5b99c81b9bdd08185c1c1c9bdd9959606a1b6044820152606401610881565b60048201805460ff19166002179055600a54611e4f90600190612e98565b600b5403611e69576008805460ff19166004179055611e82565b6001600b6000828254611e7c9190612cb5565b90915550505b611e8a6126dd565b5050565b6003546001600160a01b03163314611eb85760405162461bcd60e51b815260040161088190612cea565b306001600160a01b031663947967556040518163ffffffff1660e01b8152600401600060405180830381600087803b158015611ef357600080fd5b505af1158015611f07573d6000803e3d6000fd5b50505050565b600080805b600a54811015611f5657600a8181548110611f2f57611f2f612e82565b90600052602060002090600502016002015482611f4c9190612cb5565b9150600101611f12565b50919050565b600d80546107a590612c52565b600a8181548110611f7957600080fd5b9060005260206000209060050201600091509050806000018054611f9c90612c52565b80601f0160208091040260200160405190810160405280929190818152602001828054611fc890612c52565b80156120155780601f10611fea57610100808354040283529160200191612015565b820191906000526020600020905b815481529060010190602001808311611ff857829003601f168201915b50505050509080600101805461202a90612c52565b80601f016020809104026020016040519081016040528092919081815260200182805461205690612c52565b80156120a35780601f10612078576101008083540402835291602001916120a3565b820191906000526020600020905b81548152906001019060200180831161208657829003601f168201915b50505050600283015460038401546004909401549293909290915060ff1685565b6003546001600160a01b031633146120ee5760405162461bcd60e51b815260040161088190612cea565b6000821161213e5760405162461bcd60e51b815260206004820152601f60248201527f4d696c6573746f6e6520676f616c206d75737420626520706f736974697665006044820152606401610881565b42811161218d5760405162461bcd60e51b815260206004820152601e60248201527f446561646c696e65206d75737420626520696e207468652066757475726500006044820152606401610881565b600a54156123ba57600a8054600091906121a990600190612e98565b815481106121b9576121b9612e82565b90600052602060002090600502016040518060a00160405290816000820180546121e290612c52565b80601f016020809104026020016040519081016040528092919081815260200182805461220e90612c52565b801561225b5780601f106122305761010080835404028352916020019161225b565b820191906000526020600020905b81548152906001019060200180831161223e57829003601f168201915b5050505050815260200160018201805461227490612c52565b80601f01602080910402602001604051908101604052809291908181526020018280546122a090612c52565b80156122ed5780601f106122c2576101008083540402835291602001916122ed565b820191906000526020600020905b8154815290600101906020018083116122d057829003601f168201915b5050509183525050600282810154602083015260038301546040830152600483015460609092019160ff1690811115612328576123286129bc565b6002811115612339576123396129bc565b815250509050818160600151106123b85760405162461bcd60e51b815260206004820152603760248201527f4d696c6573746f6e6520646561646c696e65206d75737420626520616674657260448201527f207468652070726576696f7573206d696c6573746f6e650000000000000000006064820152608401610881565b505b60006040518060a00160405280868152602001858152602001848152602001838152602001600060028111156123f2576123f26129bc565b9052600a80546001908101808355600083905292935083926124149190612e98565b8154811061242457612424612e82565b6000918252602090912082516005909202019081906124439082612f4f565b50602082015160018201906124589082612f4f565b50604082015181600201556060820151816003015560808201518160040160006101000a81548160ff02191690836002811115612497576124976129bc565b021790555050600a546040519091507f3404adc1e97e3d7883a71f5c2c46074b7fede4743a4299c4a80d65c71611adc0906124d990889088908890889061300e565b60405180910390a25050505050565b600c80546107a590612c52565b611e8a828260405160240161250b929190612cc8565b60408051601f198184030181529190526020810180516001600160e01b0316632d839cb360e21b1790526127b2565b600160085460ff166004811115612553576125536129bc565b146125995760405162461bcd60e51b815260206004820152601660248201527550726f6a656374206973206e6f742066756e64696e6760501b6044820152606401610881565b42600954116125dc5760405162461bcd60e51b815260206004820152600f60248201526e115e1c1a5c9959081c1c9bda9958dd608a1b6044820152606401610881565b306001600160a01b031663d02ee3cb6040518163ffffffff1660e01b8152600401602060405180830381865afa15801561261a573d6000803e3d6000fd5b505050506040513d601f19601f8201168201806040525081019061263e9190612c86565b60055410156126825760405162461bcd60e51b815260206004820152601060248201526f11dbd85b081b9bdd081c995858da195960821b6044820152606401610881565b6008805461ffff191661010217905560055460065561269f6126dd565b6008546040517faa490fe8d9a0e22f3c6dce5322273cfd002e3a554424a5bfd2185174eeec8d0e91610d8d9160ff8083169261010090041690612d32565b600460085460ff1660048111156126f6576126f66129bc565b03612702576000600655565b600260085460ff16600481111561271b5761271b6129bc565b146127385760405162461bcd60e51b815260040161088190612d4f565b6000600a600b548154811061274f5761274f612e82565b906000526020600020906005020190506064601260019054906101000a900460ff16606461277d9190613047565b60ff16826002015461278f9190612eab565b6127999190612ec2565b600660008282546127aa9190612e98565b909155505050565b6127bb816127be565b50565b60006a636f6e736f6c652e6c6f679050600080835160208501845afa505050565b6040518060a001604052806060815260200160608152602001600081526020016000815260200160006002811115612819576128196129bc565b905290565b6000815180845260005b8181101561284457602081850181015186830182015201612828565b506000602082860101526020601f19601f83011685010191505092915050565b602081526000612877602083018461281e565b9392505050565b634e487b7160e01b600052604160045260246000fd5b604051610100810167ffffffffffffffff811182821017156128b8576128b861287e565b60405290565b600082601f8301126128cf57600080fd5b813567ffffffffffffffff8111156128e9576128e961287e565b604051601f8201601f19908116603f0116810167ffffffffffffffff811182821017156129185761291861287e565b60405281815283820160200185101561293057600080fd5b816020850160208301376000918101602001919091529392505050565b60006020828403121561295f57600080fd5b813567ffffffffffffffff81111561297657600080fd5b612982848285016128be565b949350505050565b6001600160a01b03811681146127bb57600080fd5b6000602082840312156129b157600080fd5b81356128778161298a565b634e487b7160e01b600052602160045260246000fd5b600581106129e2576129e26129bc565b9052565b602081016129f482846129d2565b92915050565b600060208284031215612a0c57600080fd5b5035919050565b600381106129e2576129e26129bc565b6000815160a08452612a3860a085018261281e565b905060208301518482036020860152612a51828261281e565b91505060408301516040850152606083015160608501526080830151612a7a6080860182612a13565b509392505050565b6020815260006128776020830184612a23565b600080600060608486031215612aaa57600080fd5b833567ffffffffffffffff811115612ac157600080fd5b612acd868287016128be565b93505060208401359150604084013567ffffffffffffffff811115612af157600080fd5b612afd868287016128be565b9150509250925092565b6000602082016020835280845180835260408501915060408160051b86010192506020860160005b82811015612b6057603f19878603018452612b4b858351612a23565b94506020938401939190910190600101612b2f565b50929695505050505050565b60008060408385031215612b7f57600080fd5b50508035926020909101359150565b60a081526000612ba160a083018861281e565b8281036020840152612bb3818861281e565b915050846040830152836060830152612bcf6080830184612a13565b9695505050505050565b60008060008060808587031215612bef57600080fd5b843567ffffffffffffffff811115612c0657600080fd5b612c12878288016128be565b945050602085013567ffffffffffffffff811115612c2f57600080fd5b612c3b878288016128be565b949794965050505060408301359260600135919050565b600181811c90821680612c6657607f821691505b602082108103611f5657634e487b7160e01b600052602260045260246000fd5b600060208284031215612c9857600080fd5b5051919050565b634e487b7160e01b600052601160045260246000fd5b808201808211156129f4576129f4612c9f565b604081526000612cdb604083018561281e565b90508260208301529392505050565b60208082526028908201527f4f6e6c792074686520666f756e6465722063616e20706572666f726d20746869604082015267399030b1ba34b7b760c11b606082015260800190565b60408101612d4082856129d2565b82151560208301529392505050565b60208082526015908201527450726f6a656374206973206e6f742061637469766560581b604082015260600190565b6020808252601b908201527f50726f6a6563742066756e64696e67206973206e6f7420646f6e650000000000604082015260600190565b805160028110612dc457600080fd5b919050565b6000610100828403128015612ddd57600080fd5b506000612de8612894565b835160038110612df6578283fd5b8152612e0460208501612db5565b602082015260408481015190820152606080850151908201526080808501519082015260a0808501519082015260c0808501519082015260e09384015193810193909352509092915050565b8481526080810160028510612e6757612e676129bc565b84602083015283604083015282606083015295945050505050565b634e487b7160e01b600052603260045260246000fd5b818103818111156129f4576129f4612c9f565b80820281158282048414176129f4576129f4612c9f565b600082612edf57634e487b7160e01b600052601260045260246000fd5b500490565b600060208284031215612ef657600080fd5b81516128778161298a565b601f82111561055d57806000526020600020601f840160051c81016020851015612f285750805b601f840160051c820191505b81811015612f485760008155600101612f34565b5050505050565b815167ffffffffffffffff811115612f6957612f6961287e565b612f7d81612f778454612c52565b84612f01565b6020601f821160018114612fb15760008315612f995750848201515b600019600385901b1c1916600184901b178455612f48565b600084815260208120601f198516915b82811015612fe15787850151825560209485019460019092019101612fc1565b5084821015612fff5786840151600019600387901b60f8161c191681555b50505050600190811b01905550565b608081526000613021608083018761281e565b8281036020840152613033818761281e565b604084019590955250506060015292915050565b60ff82811682821603908111156129f4576129f4612c9f56fea2646970667358221220869db81857e26ff16e581e0dbea7dec1ec9cb5fe75d57955a0e5a87a4aebca2064736f6c634300081c00336080604052348015600f57600080fd5b50600080546001600160a01b031990811673694aa1769357215de4fac081bf1f309adc3253061790915560018054909116731b44f3514812d835eb1bdb0acb33d3fa3351ee4317905561051b806100676000396000f3fe608060405234801561001057600080fd5b50600436106100415760003560e01c80632a2634a814610046578063a607a8d91461006b578063dd22db8014610073575b600080fd5b610059610054366004610371565b61007b565b60405190815260200160405180910390f35b6100596101c2565b61005961028b565b6000827faaaebeba3810b1e6b70781f14b2d72c1cb89c0b2b320c43bb67ff79f562f5ff4818051906020012014806100d85750805160208201207fe98e2830be1a7e4156d656a7505e65d08c67660dc618072422e9c78053c261e9145b6101295760405162461bcd60e51b815260206004820152601d60248201527f4f6e6c79206163636570742065697468657220455448206f722042544300000060448201526064015b60405180910390fd5b60007faaaebeba3810b1e6b70781f14b2d72c1cb89c0b2b320c43bb67ff79f562f5ff4858051906020012003610168576101616101c2565b90506101a0565b845160208601207f1671d7cf41e581bea929a958afa19a2f739899f239e7f8dbdd16387fac3d9e17016101a05761019d61028b565b90505b6305f5e1006101af828661042c565b6101b99190610457565b95945050505050565b6000805460408051633fabe5a360e21b8152905183926001600160a01b03169163feaf968c9160048083019260a09291908290030181865afa15801561020c573d6000803e3d6000fd5b505050506040513d601f19601f820116820180604052508101906102309190610493565b505050915050600081136102865760405162461bcd60e51b815260206004820181905260248201527f496e76616c6964204554482070726963652066726f6d20436861696e6c696e6b6044820152606401610120565b919050565b600080600160009054906101000a90046001600160a01b03166001600160a01b031663feaf968c6040518163ffffffff1660e01b815260040160a060405180830381865afa1580156102e1573d6000803e3d6000fd5b505050506040513d601f19601f820116820180604052508101906103059190610493565b505050915050600081136102865760405162461bcd60e51b815260206004820181905260248201527f496e76616c6964204254432070726963652066726f6d20436861696e6c696e6b6044820152606401610120565b634e487b7160e01b600052604160045260246000fd5b6000806040838503121561038457600080fd5b823567ffffffffffffffff81111561039b57600080fd5b8301601f810185136103ac57600080fd5b803567ffffffffffffffff8111156103c6576103c661035b565b604051601f8201601f19908116603f0116810167ffffffffffffffff811182821017156103f5576103f561035b565b60405281815282820160200187101561040d57600080fd5b8160208401602083013760006020928201830152969401359450505050565b808202811582820484141761045157634e487b7160e01b600052601160045260246000fd5b92915050565b60008261047457634e487b7160e01b600052601260045260246000fd5b500490565b805169ffffffffffffffffffff8116811461028657600080fd5b600080600080600060a086880312156104ab57600080fd5b6104b486610479565b602087015160408801516060890151929750909550935091506104d960808701610479565b9050929550929590935056fea2646970667358221220c5b5f5587f068a42720122c439b19cb184ec415a3a05fd671ce4a2fd135449ee64736f6c634300081c0033a2646970667358221220b39680e4c8881c11aa62d1b0b413881ddc3daa8c2e49d5f5dacf54598d810a5064736f6c634300081c0033",
  "linkReferences": {},
  "deployedLinkReferences": {}
}